:020000041005E5
:10F800000060002089840610C37006105141061064
:10F81000AA5555AA45554C420000000000000000C2
:10F82000000000000000000000000000159E06100F
:10F8300000000000000000003D7D061075A70610C6
:10F840003D25061091710610000000000000000028
:10F8500079AB0610219D0610C1080610CDAC06102C
:10F860000000000000000000000000000000000098
:10F870000000000073FD05105541061053410610AD
:10F88000000000003B6C06103D6C06103F6C06103B
:10F89000416C0610A98406102D780610250E06105E
:10F8A0000000000000000000000000000000000058
:10F8B0000000000000000000000000000000000048
:10F8C000EFF31482EFF309811C4880F31488BFF32F
:10F8D0006F8FF0B543464C4655465E466746F8B4D2
:10F8E000174CEFF30883236006B4164C2068164CBF
:10F8F0002060164C2068164C2060164C2068164C70
:10F900002060164C276800202060BFF34F8F30BF67
:10F9100027600B4C246884F3088882B003BCF8BCD1
:10F920009846A146AA46B346BC46F0BC04BC80F348
:10F93000098881F31488BFF36F8F1047000000001F
:10F940000800002004ED00E0B003002024ED00E0FA
:10F95000B403002000E200E0B803002008002040CB
:10F960000448854600F0C8F90048004799FB061096
:10F97000C046C0460060002030B50B46014600205E
:10F980002022012409E00D46D5409D4205D31D46A5
:10F990009540491B2546954040191546521E002D9D
:10F9A000F1DC30BD70B500242546002801DA0124C1
:10F9B0004042002901DA01254942FFF7DDFFAC4250
:10F9C00000D04042002C00D0494270BD10B5441A0E
:10F9D0000346944209D28318891803E0491E0C7823
:10F9E0005B1E1C70521EF9D210BD0C460443A407C6
:10F9F00003D009E010C9121F10C3042AFAD203E091
:10FA00000C781C70491C5B1C521EF9D210BDD2B27E
:10FA100001E00270401C491EFBD270470022F6E74D
:10FA200010B513460A4604461946FFF7F0FF204674
:10FA300010BD30B504460020034600E05B1C934235
:10FA400003D2E05CCD5C401BF8D030BD0321001D2B
:10FA5000401E037812021A43491EF9D5104670471A
:10FA6000F8B502464A40D40F42004B0052085B08EA
:10FA70009A4202D20246084611464A0023D0C30DDC
:10FA80004A00DDB2120EAD1A202D35DA49020126E8
:10FA9000490AF6058A19002C00D0524220214F1B3A
:10FAA0001146B9402A411018C20D9A4221D0002CAB
:10FAB00017D0012D08DCDA05801AD20F8019D20781
:10FAC000DBB200F0E0F8F8BDDA05801A012340004F
:10FAD0001B06C01880185A428018CA0F10434900EC
:10FAE00007E04908C2071143DA05801A8019400867
:10FAF000801800F0C0F8F8BD61000122511A001B07
:10FB0000F7E70122D2075140AAE70122D20750406D
:10FB1000A6E7024670B54A40D30FDB0740002DD060
:10FB20004A002AD0010E140E000212020919400ADE
:10FB3000520A8418E50104465443000A120A2E04AE
:10FB40005043A4194219200CC543AA18120C0125D0
:10FB5000AD03521C521912047F39240400D0521CE8
:10FB6000104301D44000491EC2B20C06C00920183F
:10FB7000401C4008802A02D003E0002070BD4008ED
:10FB80004000002900DA0020184370BD70B502461D
:10FB90004A40D50F40004A00ED07400852080028AF
:10FBA00014D0002A12D0C40DD30D41020120C0058B
:10FBB0005202490A520AE41A091812187D34914275
:10FBC00001D3641C00E04900002C01DA002070BD64
:10FBD0000023914201D3891A0343400849000028B9
:10FBE000F7D100290AD0914202D10121C90705E0CD
:10FBF000914201D2012101E00121C943E005C01871
:10FC0000401900F038F870BD420005D04200120ED5
:10FC100052428A4201DB00207047C905081870472C
:10FC2000C217C10F504010B54018CA0796230021D3
:10FC300000F029F810BD10B500229623114600F0FF
:10FC400022F810BDC20F410040020123400ADB052B
:10FC5000D207090EC0187F2901DA002070479629C3
:10FC600003DC9623591AC84001E096398840002ADF
:10FC7000F4D040427047002904DA401C490001D109
:10FC800040084000704770B40024050C05D11024D2
:10FC9000000402D1002921D01124050E01D1000257
:10FCA0000834050F01D10001241D850F01D180000A
:10FCB000A41C002801DB4000641C002908D020257A
:10FCC0002E1B0D46F540A14000D0012129430843D9
:10FCD00001061B1B000ADB1D02D5002070BC70470B
:10FCE000DB05181880180029F8DA401C4900F5D106
:10FCF00070BC400840007047064C0125064E05E0E8
:10FD0000E36807CC2B430C3C98471034B442F7D33C
:10FD1000FFF72AFE682007100821071070B58C181D
:10FD20000578401C6B075B0F01D10378401C2A113A
:10FD300006D10278401C03E006780E70401C491C76
:10FD40005B1EF9D12B0705D40023521E0DD40B7076
:10FD5000491CFAE70378401CCB1A921C03E01D787B
:10FD60000D70491C5B1C521EF9D5A142D8D300204E
:10FD700070BD70473EB5154C20780025002802D094
:10FD80000AF004FC25706078002818D06570E188BE
:10FD9000012004F0BAF8002801D001206070A068AA
:10FDA00000280CD000200AF034FA684603F0B4FFB3
:10FDB000002802D1684600F089F803F0B3FFA0786C
:10FDC000012802D1A57001F0CFFF3EBDC80300207D
:10FDD0007FB505469868012202739A681C465173E4
:10FDE0009868022202A90E3007F018FDA1680520CC
:10FDF0000D74E0807FBD70B5064608881D460C4630
:10FE0000001D81B213460222304607F06FFE2188A2
:10FE10002B46891C2180091D89B20222304607F039
:10FE200065FE2088801C208070BDFEB500240E4633
:10FE30002746056845E028680290A96802223046F6
:10FE40000D3107F0EBFC3088B84209D087B2384654
:10FE500003F064F8014601AA384603F0F1FE019C64
:10FE6000A968022268460F3107F0D8FCE888401FD5
:10FE700081B22220005D002806D001280BD0002886
:10FE800011D0012814D01BE0E08B6A461288401E76
:10FE9000904206D307E0208C6A461288401E9042AA
:10FEA00006D20720FEBD684600880818E18B03E0F3
:10FEB000684600880818218C884201D90D20FEBDB3
:10FEC000029D002DB7D100203080FEBD00B5818895
:10FED00087B049426A4611740912517401789174CD
:10FEE000018801230912D174017A494211750089F0
:10FEF00006214042001250750020019004AA0748D4
:10FF000000910392029182880188054800880BF0D5
:10FF1000ADFE002800D0472007B000BDBC03002084
:10FF2000CC030020FFB5C8880025401E83B00E46D4
:10FF300087B2012427E0B068022208300119684620
:10FF4000091D07F06BFC6846008802F0E7FF01001E
:10FF50001DD068460A8D0088824212D001AA03F0A3
:10FF60006FFE00280DD101992620405C400708D57E
:10FF700006986A00101802221C3107F04FFC6D1C15
:10FF8000ADB2A41CA4B2BC42D5D30C98058007B076
:10FF9000F0BDFFB5074683B0002000900D9802F039
:10FFA000BDFF069905460C310191002826D008377F
:10FFB000BD4223D0288D0E9988421FD80D998842C2
:10FFC00013D30E99884210D8294602222A3101986B
:10FFD00007F024FC10220C99069807F01BFC00285F
:10FFE00009D0298D0E98814208D02E462C6A2036E1
:10FFF000B4423FD140E005980021018007B0F0BD38
:020000041006E4
:10000000A18B0D98814234D30E98814234D820467A
:1000100020300290C078012808D0204608301022F5
:100020000C9907F0F7FB002808D022E021460222B5
:100030000831019807F0F2FB0698F0E70298807902
:10004000400716D50098002801D1E08B0090E18B85
:10005000814211D1059802220088410004980818B5
:1000600021461C3107F0DAFB059805990088401CF1
:1000700008802468B442C3D12D6899E7064800215E
:1000800002684B20400110180170417003218170FB
:10009000C1700020704700003004002070B50D4D85
:1000A000044601232868D902401890261A46C06CDD
:1000B00031460BF083FA010003D030464C600BF060
:1000C00069FA4B202968400109180878401C08701B
:1000D00070BD00003004002010B5044600202082CE
:1000E000A074A168A16161612060204605F0E6F975
:1000F000452801D0412010BDA08803210DF0A2FCAD
:1001000004460EF0A1F9002813D072B60A48012265
:100110000168492040010918487EA24010434876F2
:1001200062B6002010F0A0F9002802D000200CF0E8
:10013000C3FA002010BD00003004002070B5C17C5F
:100140000E4D4906490EC174044601232868D902A0
:10015000401890260022C06C31460BF02FFA0100A7
:1001600003D030464C600BF015FA4B202968400153
:1001700009184878401C487070BD00003004002009
:10018000F0B58BB01B256A461576C5265676D52464
:100190009476A527D7760221117700205077B420D6
:1001A00090779A20D077E12008AA10701120507023
:1001B0003A209070CF20D070802010716E20507146
:1001C00036209071D171102206A9414807F026FB14
:1001D000404800904048012203783D4902200BF03E
:1001E000DEFB002870D1684605764676D5218176FB
:1001F000A521C1760227077700244477FC21817767
:100200008F21C177E12108A80170112141704A2195
:100210008170CF21C170A0210171782141713E21EF
:100220008171E221C1712A48102206A9103007F01D
:10023000F5FA28491020891C059103900090244A62
:10024000244802940494019401231032022100886E
:100250000BF05EFB002837D169460D764E76D5202F
:100260008876A520C8760F774C7736208877AC2023
:10027000C877E12008A90870112048704B208870C9
:10028000CF20C870802008714D710A2088713420F9
:10029000C8710F48102206A9103007F0BFFA0D49A7
:1002A0001020091D03900422059112200292009053
:1002B000074A08480494019406231032022100885A
:1002C0000BF026FB002800D047200BB0F0BD00004B
:1002D000180B0020BC030020E6030020F0B591B00D
:1002E0001B2508AA1571C5205071D5209071A5272E
:1002F000D7710220107200245472D0209072822193
:10030000D172E22010731120507377209073E4268D
:10031000D673402010741A20507491744220D07407
:10032000102209A96F4807F079FA6F4800906F48CA
:10033000012243786B4902200BF031FB00287DD16C
:100340001B2108A80171C5214171D5218171A52109
:10035000C171022505724472E3218172A921C17223
:10036000E22101731121417377218173E421C1736B
:1003700020210174552141742E218174A321C1745F
:100380005848102209A9103007F048FA564900953C
:10039000891C554F10260420524A059104940223CB
:1003A000039601940290BF1F10321946F8880BF093
:1003B000AFFA0028C3D10E2108A80175611E41754E
:1003C0004B496846C18608A804764476210A81769E
:1003D000484968468187434802220FA9203007F028
:1003E0001DFA10A8102108900691012007260594F7
:1003F00007940DA901963B4B00960394029104903B
:10040000024620333989F8880BF0A1FA002866D11A
:100410001B2108A80171C5214171D5218171A52138
:10042000C171057244720B2181728421C172E22173
:100430000173112141738B21817300E04FE0E421AE
:10044000C17380210174C421417420218174CD21A4
:10045000C1742448102209A9103007F0DFF93A4688
:100460000A32009504210592102002911D4A04943D
:1004700001940390032310320221F8880BF048FA0C
:1004800000282CD10F2008A90875601F48754F203F
:10049000C0016946C88608A90C764C76200A887681
:1004A0001448694688870F4802220FA9203007F0B8
:1004B000B5F910A810210890069101200594079421
:1004C0000DA90196074B00960394029104900246F1
:1004D00020337989F8880BF03AFA002800D04720B9
:1004E00011B0F0BD180B0020C2030020E60300206D
:1004F0002F27000004290000F8B516460D460746D0
:10050000002409F0A5F9002806D0324629463846CD
:1005100000F028FC044604E020356879002802D069
:100520000E242046F8BD2879C10701D1012E09D03B
:10053000810701D4022E03D04007F2D4042EF0D15B
:100540000324EEE70224ECE77EB5044616460D468A
:10055000684603F067FC684603782370407828708B
:100560006846807830707EBD70B500210C4A03E08B
:10057000535C491C5918C9B2535C002BF8D1CE1CEE
:1005800002243525202E04D2545451184D70887001
:10059000CB7004490C704D708870CB7070BD00003A
:1005A000F80A00201C00002010B50AF0BFF91D4C0D
:1005B0004121206849014118097F00290DD1A0304F
:1005C0000079C00705D101F0BFFE02F001FD08F07F
:1005D00033FF00F017FC00F013FF00F001F9206872
:1005E000014640310A78C9798A4319D13E21095C14
:1005F000002915D10C490A88120711D50922D20603
:100600001269497A836AC90059181123DB01C0189D
:10061000806A801A00020012814201DA0BF0A0FF0A
:1006200010BD000030040020C000002010B5837F02
:100630000122002492024168082B03D942249142EE
:1006400002D310E0914201D242240CE00146342250
:10065000064807F0E3F800F083F8002801DA4824A0
:1006600001E00AF053FD204610BD0000600B0020A1
:100670003EB5174D15482968827F0846A0310A7398
:1006800000246030047644768476E122C2768022AB
:10069000027702224277302008704C7002AA01A92A
:1006A0006846FFF751FF68460078A22201016846BC
:1006B000007A891C00020143684600790003014367
:1006C00028681152A03004713EBD0000600B00206C
:1006D0003004002070B50AF00FF904F013FE07F0A3
:1006E00077F9FFF7CBFC04F005F81A4C1A4920689B
:1006F0001A4D4018811013202A68C0011018C162D9
:10070000616889080163A1688908416308F072FE85
:1007100029681F208001228B08188280628B0F239A
:10072000C280DB01A28BCB18DA87628C0280224662
:100730002032127882703D225201002089180873FD
:1007400001F062FC03F0A8FC0CF0F4FA00F0DEFE0D
:1007500070BD0000600B00200000FCEF30040020A2
:1007600070B50025ED430DF0BDF801282ED0002313
:1007700018490322888BFF24401E10438A7F593476
:1007800062438218088B282460431218488B302457
:10079000604312180846203040782C24604310181B
:1007A0000D4A181884184869A0420DD10B4884429C
:1007B0000AD90D690DF096F8C1B2284600F0DCFCAC
:1007C00000F016FE401B251A284670BDFF23B533E6
:1007D000CEE70000600B002089190000B809000076
:1007E000F8B52C4F3C68206E5C34401C002814D0B7
:1007F000002529480023C07B00283ED00926F606A4
:100800002648002D1CD000210A460B464169521C87
:10081000994204D1002902D004E00125E9E7204BE8
:100820009A42F2D32160006960603069A1680002D9
:10083000090E000A09060143A16000F033F81DE02B
:100840003169A2680902090A150E08D0018BC9078F
:1008500012D04169216000696060E37210E0881A7B
:1008600000027D2300121B03984205DD100E0006D6
:100870000843A06000F016F8F8BD6360002DFBD0BF
:1008800003CC0FF097FDFA200FF076F939688862F3
:10089000F8BD000030040020800B0020000010484C
:1008A0008813000004490020086104480121006801
:1008B0006030C17170470000000010483004002013
:1008C00010B507F0D3FC10BD70B5274A00211068A1
:1008D00003464030417601764920400118184176A0
:1008E00081760F202033987513230846DB011468A6
:1008F0000546E4186468303521541468E4186468C7
:10090000615514683035E418646861551468E4185A
:10091000656804469034401CC0B229552D28E6D3A2
:100920001068C3185C6809231B02C318DC652546E0
:1009300030359D6590345C65FF234830037043700B
:100940008370C3701F23037112684D2081540748C0
:1009500001800921417105238371C17103724281B4
:1009600000F006F870BD000030040020C000002038
:1009700010B5064801680648406A002803D02022C6
:100980000CF04BFF10BD0020087010BD300400209B
:10099000600B0020F8B5069C1F4615460646002C45
:1009A00013D0A06802220D3006F038FFE81E82B294
:1009B0003B460721204607F099F8E580A068012E04
:1009C00005D01D2101730020F8BD4720F8BD1B2173
:1009D000F8E770B515460646FFF78EFD0446082D6C
:1009E0000BD1052C09D1304608F032FF002804D085
:1009F00000894004800F00D00024204670BD2423CD
:100A0000184204D0C81F092803D82032D171002011
:100A10007047422070470000F1B5FFB001248BB051
:100A2000600205900027CC4807970168CB48C94D64
:100A3000081803908A980AAA0005000D05A908F075
:100A400011FC0690002872D104260AA805994218C4
:100A5000203AD27F0B2A23D00026002004900AA837
:100A60008119022201A8029106F0D8FE6846818809
:100A700009AB08AA039803F0C5F8012817D002288B
:100A80007ED068468088854200D30546844200D9DE
:100A90002046044602988078012872D013363CE143
:100AA000491E761E36040591360CCFD1D5E708983D
:100AB0000090002F66D1009902222831029806F09A
:100AC000A9FE00281ED100982030017B0298807872
:100AD000814217D1012808D10098029902220830DA
:100AE000C91C06F097FE002815D0029880780228CD
:100AF00008D10098029910220830C91C06F08AFE1D
:100B0000002808D00098008DA84200D80546A042D1
:100B100000D22046044602990AA88978012907D004
:100B200013360599B6B28E4204D3012707E006E1D9
:100B3000761DF6E78119022201A806F06FFE0399DF
:100B4000009808318E462FE084466946026A8B88F9
:100B500020300DE0918B994203D3012F7ED1994231
:100B60007CD9A94200D80D46A14200D30C46126898
:100B70008242EFD10498002804D16046006802E068
:100B800015E0BFE08AE070450ED0018D994203D395
:100B9000012F09D1994207D98D4200D30D468C42CD
:100BA00000D80C46012F59D17045CDD1BAE0089834
:100BB0000090002F72D1009902221C31029806F099
:100BC00029FE00281ED100982030C1780298807834
:100BD000814217D1012808D10098029902220830D9
:100BE000C91C06F017FE00281AD002988078022847
:100BF00008D10098029910220830C91C06F00AFE9C
:100C000000280DD00098808BA84200D80546A0424D
:100C100000D22046044602988078012826D003E0BE
:100C200002988078012805D013360798B6B20128BB
:100C30001ED021E000984A490089884216D18A983E
:100C400000F052FF0146009800F02EFE0099098C3A
:100C50004843009989694018022200E038E002996F
:100C6000491D06F0DBFD01200790D4E7761DDCE787
:100C7000B61C0020B6B207900598864201D3012722
:100C800005E00AA88119022201A806F0C7FD039A0F
:100C90000099083209980968944630E01AE08646BF
:100CA0006A46938820300DE08A8B9A4203D3012F45
:100CB0000ED19A420CD9AA4200D81546A24200D3BE
:100CC000144609688142EFD1049800282AD102E035
:100CD0000120049026E07046006860450FD0028D28
:100CE000016A9A4203D3012F09D19A4207D995424A
:100CF00000D31546944200D81446012FE8D1604530
:100D0000CDD10FE00298C078022805D10298007971
:100D1000292801D1B61CB6B2761D0598B6B2864216
:100D200000D301270598811B042902D3864200D2F3
:100D300093E604980028FBD1A54203D906987FB01A
:100D40000CB0F0BD224629468A9803F02DFB069090
:100D5000F5E70000FFFF00003004002064070000FA
:100D60000229000070B515460C46064608F058FDED
:100D700020346179012D09D00A0702D54207920F6C
:100D80000FD0CA0625D5020709D522E0CA0702D02E
:100D90004207920F05D08A0705D5020703D4082021
:100DA00070BD052070BD490707D5C00709D0E1799E
:100DB000304608F0A9FC5F2805D02079C00704D090
:100DC00005E00F2070BD0C2070BD022070BD00201A
:100DD00070BD890607D5C007F3D0E179304608F029
:100DE00093FC5F28EFD02079810701D4022D07D032
:100DF000410701D4042D03D00007E8D4082DE6D123
:100E0000032070BD10B506F095FF06F010FD0CF044
:100E100069FD012801D100F033F8C046C04600F05A
:100E200087F910BD7047000070B5134909220968A1
:100E3000120200208B18AC22525C19E060249D6ED7
:100E400044432C195C252D5DED060FD50B48081881
:100E5000C030428A018A608904F0FEFD3A2804D03D
:100E60004034207FEF210840207770BD401CC0B285
:100E70008242E3D870BD0000300400205808000012
:100E800010B5FFF7D1FF10BDFFB50746464881B04A
:100E900000880D46454909220968120240078A1850
:100EA000400F926E60235843141841480E180CF0FE
:100EB00019FD002822D0142D04D0152D20D0072D87
:100EC00059D05CE02146039804F005F8012120691F
:100ED00089040843214640312061087F02221043E3
:100EE0000877820609D56279520852006271DF22C2
:100EF00010400877002F4ED151E0012005B0F0BD21
:100F000025464035287FC007F7D02146039803F0D7
:100F1000E2FF204603F0B2FF002825D0A888E98828
:100F2000884200D30846E881698AA88A814200D2B3
:100F3000084668832A8AE98A8A4200D211462983B0
:100F40006A882889824200D21046C9080E3989B2BF
:100F50006881884200D30846A8810498006801216E
:100F60004906084304990860287F40084000287714
:100F7000002F10D113E00398C078142802D000206D
:100F800005B0F0BD4034207F0421400840000843F4
:100F90002077002F03D00820C036F073ADE708207B
:100FA000C036B073A9E70000C00000203004002064
:100FB0005808000010B5FFF767FF10BD002101E0E1
:100FC00000BF491C8142FBD370470000F3B58BB0D2
:100FD00005461C2248A103A8FEF7F8FC684602F06B
:100FE00021FF09240126E406002D67D0442069462C
:100FF00088764848017A314301724C206946C875A9
:1010000020200875B22048775B2008A90870424A62
:10101000906A4249030C8B420AD108AFFB788F27B4
:101020003B4008AFFB70FB784007400E0343FB706A
:10103000506A020C8A420AD16B465A7CCF231A406E
:101040006B465A745A7C8007800E02435A743248A9
:101050004038006B020C8A4209D108AAD17889086D
:101060008900D170D1788007800F0143D170694623
:10107000C87DFB2108406946C87548788978000119
:101080000843122808D308A9C8780421084308A9EE
:10109000C870C878FFF768FA03A8012180B2090474
:1010A0004018E060E068C003FCD46946487889785D
:1010B00000010843122801D309F0B8FA1849088B37
:1010C0000028FCD00E8317208881002008610C982E
:1010D000002806D0216910200140226902408A427E
:1010E000FBD0002D02D00F49152008700F490E4883
:1010F00008600DB0F0BD0000023F00023E30023C2F
:1011000020023B4C023A400239B202345B02350BFA
:101110000000000000002040C007001055AA000099
:10112000000010480000C040CCBCECFC14000020C3
:10113000F8B5104E30682030C57D002D19D0002440
:1011400009273F0210E0E9070BD0C019816E60202B
:10115000604308184030417F204604F0D7F900284A
:1011600007D06D08641CE4B23068AC21095CA14270
:10117000E9D8F8BD30040020F3B581B0984A0121C8
:1011800001A805F093FF974C04222060432101A899
:1011900005F08CFF01272168FF02C91908640422A9
:1011A000432101A805F082FF21680422C91948647F
:1011B000FF21843101A805F079FF21688A4DC91902
:1011C0008864A97F0C2201A80B3105F06FFF132161
:1011D0002268C9015118C860A97F202201A805F022
:1011E00065FF0926216836028919C867A97F102280
:1011F00001A805F05BFF13212268C901511808609E
:101200002822052101A805F051FF13212268C901F8
:10121000511888603022052101A805F047FF1321ED
:101220002268C90151184860FA10012101A805F08F
:101230003DFF13212268C90151184861A97F60222E
:1012400001A805F033FF2168202289198866A97F4B
:1012500001A805F02BFF21688919C866AA8B012116
:1012600001A805F023FF0F212268C90151188863E6
:10127000298B282201A805F019FF0F212268C90136
:1012800051180863698B302201A805F00FFF0F2168
:101290002268C901511848630C22012101A805F0F8
:1012A00005FF21680C2289194866012101A805F073
:1012B000FDFE216828228919496E88602846203061
:1012C0000090417801A805F0F1FE216804228919F7
:1012D000496E896888600098417801A8491C05F02A
:1012E000E5FE216810228919496E89684860A97F46
:1012F00001A805F0DBFE21680222C9194863A97F15
:1013000001A805F0D3FE21680222C919C860A97F8F
:1013100001A805F0CBFE21680222C9190861A97F46
:1013200001A805F0C3FE21680222C9194861A97FFE
:1013300001A805F0BBFE21680122C9198861A97FB7
:1013400001A8491C05F0B2FE21681022C9190863E2
:101350000B2101A805F0AAFE0722216812028918B4
:1013600008650422802101A805F0A0FE21688919E2
:101370000867029ADC204243012101A8443205F0AB
:1013800095FE216889194867029AD82042430121B5
:1013900001A82C3205F08AFE2168F022891988679D
:1013A000012101A805F082FE104C7C222060A97F5B
:1013B00001A805F07BFE21680822C867032101A867
:1013C00005F074FE2168282280310860012101A8FF
:1013D00005F06CFE2168803148600198FEBD000078
:1013E000B809000030040020600B00203404002005
:1013F000704710B5C001000C00F0ECF9002010BDE2
:10140000FEB572B63F4D0823286801464030C279C8
:101410001A43C27162B6002001276C46FF028200A7
:101420005218D219D26C52884300401CC0B2E2520A
:101430000328F4D372B6C8190021866B816362B6A3
:10144000F00702D000200CF08DFDB00702D501207E
:101450000CF088FD700702D502200CF083FD3007E8
:1014600002D503200CF07EFD002623E00D281AD2C1
:10147000211D254A8000125820469047002812D08E
:1014800072B62868F7224030C1791140C17162B646
:1014900030E03A2807D21C49231D8000E8390A5859
:1014A000194620469047029829684018C019C06C18
:1014B0002188018071006846415AB00002902A6874
:1014C0008018C019C06C0288920892001418028813
:1014D00008348A420ED0A27891070BD09107890F69
:1014E000012901D104460834A0788008C006E078BC
:1014F000CFD5BBE7761CF6B2032EDBD30CF07CFC19
:10150000FEBD000030040020F81F071070B50CF07D
:101510008DFC114D01242868E4020019006C402163
:101520000CF052FA29680919C864486C40210CF083
:101530004BFA296809190865886CFF2181310CF084
:1015400043FA2B6808221919486504480021181825
:1015500006F068F970BD0000300400203808000073
:10156000FEB50646294814460068294A8518C888E9
:10157000032806D02346002202210420FEF728FC7F
:1015800042E08968022268460D3106F047F9326967
:1015900090052ED468460188172903D35C20405B50
:1015A000172801D2172002E0814200D2084670803D
:1015B0000120400202430220326101901348392188
:1015C0000068490141183788097C7688012349075A
:1015D0000FD5D902083040182422C06C022109F02E
:1015E000EDFF002805D08780C6800146019809F0EC
:1015F000D1FFA06803260673A068294602225C3149
:101600000D3006F00BF9E6800020FEBD300400200E
:1016100064070000F7B590B000206A460D909082F4
:101620006A4A6B4B12680446D218CB88022B08D04A
:10163000002218210420129BFEF7CAFB002013B0E1
:10164000F0BD8B6800205E7B0A900B90888830325A
:1016500001920990002701980AF0FEFB054620E060
:1016600028680890A9880998814219D1A96802229E
:1016700007A80D3106F0D2F8002F01D16846878BFC
:101680006846808B87420BD1294601980AF031FCCD
:10169000002028600A98002811D00B9805600B954F
:1016A000089D002DDCD1002FD4D11298192180681B
:1016B000017301211298012EC18002D081E00A95A8
:1016C000EDE702A90AA8FEF7B0FB002879D0694629
:1016D0000A891821129BFEF77BFB002671E08168C6
:1016E0000546022202A80D3106F098F8012E66D1B7
:1016F0006846008901F012FC014668460EAA00897E
:1017000002F09EFA0E9C1099204600F0CDF80D9044
:1017100055E02F68012E3FD1002F06D0B968022274
:1017200005A80D3106F07AF802E0002069468882AB
:10173000A968022204A80F3106F070F8E8880D9914
:10174000401F80B20090208CA2694843694610185F
:10175000098A009A43180921284606F0D7F8222062
:10176000005D012804D16846018A00980818E083CA
:1017700068460189808A81420ED0208C0D99A26929
:10178000484310180021019000911098E38B0188C4
:10179000A28B02200AF02CF90A9908680A9000200E
:1017A00008600A99002900D10B900121284606F013
:1017B00049F969460889898A884202D13D46002D47
:1017C000A7D10A9800288AD139E700003004002008
:1017D0006407000000B508490968084A914209D128
:1017E0004006010C06483F220281816111210180DF
:1017F00000F052F800BD000014000020CCBCECFC4E
:101800000000104000B5094A1268094B9A420BD1FA
:10181000084A3F23138180089061064840300160E8
:101820003320108000F038F800BD000014000020C4
:10183000CCBCECFC0000104000B50C4A12680C4B0C
:101840009A4212D10B4A3F231381800890610948C4
:101850000B68403003604B6843608B688360C968E5
:10186000C160CC20108000F017F800BD14000020EB
:10187000CCBCECFC0000104010B501E0521ED2B20E
:10188000002A07D003780C78401C491CA342F5D0ED
:10189000012010BD002010BD0248018AC907FCD0FC
:1018A000704700000000104030B5024623239B5CC7
:1018B0000020012B1AD112890D4B9A4216D10D4AE4
:1018C000092312681B02D318A032DB6E127B0AE0D8
:1018D00045010C885D5B24052D05240D2D0DAC42C2
:1018E00004D0401CC0B28242F2D8002030BD0000BB
:1018F0000229000030040020F7B578480F46006840
:10190000774988B04418F888072804D200220621B5
:1019100004200A9B2AE0B968022268460D3105F0CE
:101920007DFFB968022201A80F3105F077FFB96881
:10193000022204A8113105F071FFF888C01F80B29F
:10194000039068460288808882420CD8002A0AD018
:101950000898002142880A9806F0F8F9002808D073
:1019600045200BB0F0BD062101200A9BFEF730FA9E
:10197000ABE00A98072180680834017301216846AA
:1019800001810594008801F0C9FA05007CD086E049
:101990006846008A0522D202904202D0521C904230
:1019A00026D168460088814278D329460B22083127
:1019B0003846039B06F040F869466A8D098A8A42D8
:1019C0006CD10399022901D0102967D1002865D173
:1019D0002A462846296A28322030814202D06B6A82
:1019E0001C3300E0134602A90A98FEF704FA55E0FA
:1019F0002E462C6A2036B4424ED14FE06946A08B69
:101A00000988884247D369468988884257D8232065
:101A1000005D01283FD120460899FFF745FF218C42
:101A2000A269414351180B223846039B06F004F883
:101A3000069008980122008821460005000DFEF757
:101A40005BFD01466A462089128A904223D1002913
:101A500021D1E28B03998A421DD1069900291AD11E
:101A600008996A4649881289891A042927D3224687
:101A70001C491C32884208D12068B04205D0008938
:101A8000884202D02468F7E719E023461C3302A9F4
:101A90000A98FEF7B0F92468B442AFD12D680598D2
:101AA00085420CD06846298D8088814207D80898E5
:101AB0006A4640881289801A042800D368E768467D
:101AC0000089012803D90A99C880002049E768469F
:101AD000028806210A200A9B48E700003004002003
:101AE000640700000328000010B50D4900050B68CD
:101AF000092109025918CA6E0021000DA0331B7B71
:101B00000AE04C01145B2405240D844202D14801F3
:101B1000801810BD491CC9B28B42F2D8002010BDFC
:101B200030040020FFB589B0002405460794D08812
:101B30001646052804D00022042108460C9B20E00C
:101B4000B168022208A80D3105F068FEB1680222D2
:101B500068460F3105F062FE6846028C00888242BA
:101B60000CD8002A0AD00A98002142880C9806F066
:101B7000EDF8002808D045200DB0F0BD042101206B
:101B80000C9BFEF725F9B9E06846008C01F0C6F918
:101B9000060076D0083504950498864272D06946CE
:101BA000308D098C884230D36946098888422CD808
:101BB000002C0AD1012107910C980521806802248C
:101BC00001730C980799806841730A984088001B3C
:101BD000042857D30798012854D1201D81B23346D9
:101BE000283302220C9805F081FFA01D81B23346F4
:101BF0002A330222A41C0C9805F078FF6946A41C25
:101C0000308D0988A4B2884274D03746356A2037AF
:101C1000BD42C1D060E06946A88B098C88425AD386
:101C200069460988884265D8002C36D02320415D5A
:101C30000798814260D10A984088001B042802D38B
:101C40000799012904D0122856D30798022853D1A6
:101C5000201D81B22B461C3302220C9805F046FF52
:101C6000A41C0798A4B201280DD0201D81B22B46D8
:101C7000083310220C9805F039FF2046103084B24A
:101C800029E03DE036E0201D81B22B4608330222D8
:101C90000C9805F02BFFA01CF1E72320415D079174
:101CA0000C9805218068022201730C9807998068BE
:101CB00041730C98294680681C310E3005F0AEFD4A
:101CC000079901290CD02B460833102208210C98C3
:101CD00005F00CFF14242D68BD429CD136685BE7EB
:101CE0000C982946806802220831103005F096FDD4
:101CF0000624F0E7002C03D00C98C48000203BE7BA
:101D00006846028C04210A200C9B3AE70649092206
:101D10000968120289188008C96E400108180188F4
:101D2000002900D1002070473004002070B50C4617
:101D30000B4E81000B4832680D1801232032D377F7
:101D400021462846FFF75EFD28680021844201D124
:101D5000084600E0FB2032682032D17770BD0000D9
:101D6000300400200000041000B585B001216A464F
:101D700011740020019004AA074800910392029177
:101D80000B46428801880548008809F06FFF00284B
:101D900000D0472005B000BDBC030020CC030020CC
:101DA00038B5184A14682246BA32AE34A378DD0733
:101DB00001D001290AD05B070CD501290AD021796D
:101DC00049070BD5E17A002905D007E0E0788021AA
:101DD0000843E07038BD0121E1725080207941064E
:101DE000090FF7D078210840694608700020487034
:101DF0006A460221422009F0E1FC2079872108404F
:101E0000207138BD3004002070470000FFB50C463B
:101E100078A103C995B001910090002108A8017331
:101E20000321C90268464186012108A8734E017446
:101E300035681746AE3502F023FA002808D17049FC
:101E40003068401801F0AAFFA878002802D0462088
:101E500019B0F0BD0BA8159900F0B6FA0028F7D11B
:101E6000072010A90871012C05D0022C0AD0002CE3
:101E70000ED04220ECE708A8017B1020014308A8FF
:101E8000017305E011A90BA800F0ADFA0028DFD11D
:101E900010A8027901230CA9284600F005FF0028AC
:101EA0007ED102222946189805F0B8FC2988684698
:101EB00081811521490201820784012686734E2102
:101EC00008A881700024C4700671072141718671D1
:101ED00003A902A800F09EFC002861D1022202A9F9
:101EE0001E9805F09BFC082F02D26846478502E049
:101EF00008206946488569460C850B4628880AAA49
:101F0000098901F083FC00286DD13E4968460182B1
:101F10000227078408A8847103A902A800F07AFCAC
:101F2000002860D1022202A91F9805F077FC6846BC
:101F30000470694644704F850B4628880AAA0989AF
:101F400001F064FC00284ED108A8007BC00723D014
:101F50002C496846C91C01820821018408A88770A1
:101F6000047103A902A800F055FC00283BD1FF2111
:101F70006846C1718171C170817041700170447196
:101F800004716946082048850B4628880AAA0989F1
:101F900001F03CFC002826D108A8007B800600E068
:101FA00021E022D52988684681811649A531018220
:101FB0000684867308A88770C47004710721417174
:101FC000847103A902A800F025FC00280BD1694602
:101FD0000E700C854E850B4628880AAA098901F0E7
:101FE00015FC002801D0472032E708A8007BA87024
:101FF00000202DE7626C75656E7267213004002049
:1020000033070000012A0000034800210068AE30B9
:10201000C1708170704700003004002038B502465E
:10202000174801240068AE30022A1FD0052A03D0C9
:10203000072A07D00B2A20D1084609794088FFF7E4
:10204000AFFE1AE000790024020600D501248207C1
:1020500003D1C20601D480060FD5084600216A4686
:102060001170694609F0C6F8044606E08178490710
:1020700003D50179FB2211400171204638BD0000D3
:102080003004002010B509480468AE34E0788007B9
:102090000BD5002002F06EFF022009F035FBE0783E
:1020A00001210843FD210840E07010BD30040020EC
:1020B0000FB410B5079C01282DD1684680891749B7
:1020C000884210D103A80FC800F0B2F900281DD132
:1020D00006F0E4FFFA281ED001281CD92078F3214D
:1020E0000840207017E00D49491C884208D0C91EDD
:1020F000884205D0491C884202D0C91C88420AD1B6
:1021000003AC0FCC00F094F9002800D0632010BC81
:1021100008BC04B018470020F9E70000022A0000BC
:10212000FFB5074673480D4604688FB0AE34A178FA
:102130001E46C80602D5E078C0067DD4880607D5BD
:10214000E0788006800F03D0022F01D0002E73D0DC
:102150008806800F06D0022F08D0032F06D0002E4D
:102160006AD003E0012F01D0002FF8D1880603D4F4
:10217000002D01D0012D5FD1002E06D1302001406D
:10218000384602F05BFD002856D1119900200870F6
:10219000A17889068A0F7DD00CA908A803F064F8FD
:1021A00007900DA90AA803F08DF80690079800285B
:1021B00002D00698002801D1012E58D1022F04A880
:1021C00007D001F065FD002E3CD00798002803D011
:1021D00012E007F036FDF6E7464F47483B68062217
:1021E00008A9181805F016FB0028386808D04030F8
:1021F000417E4908490041760698002805D014E040
:102200004030417E01221143F5E73A4F3A483B689E
:1022100006220AA9181805F0FDFA002838680CD023
:102220004030417EFD22114041760798002809D0B8
:102230000698002806D01AE043E04030417E022292
:102240001143F1E72B48062203682B4804A918180C
:1022500005F0E4FA052069460873002E02D108460D
:1022600008F03EFC25480290684608F0EDFBA07897
:10227000800611D51198032101702079C10603D57C
:10228000002D01D0022D1CD1800605D5012D03D0D3
:10229000032D00E018E014D1A078C00627D51199CD
:1022A000012008702079C10601D5002D09D18106D1
:1022B00001D5012D05D1000619D5002D17D0012D0E
:1022C00015D0422013B0F0BD012F01D1002E03D054
:1022D000890F314309D00AE0064806220368064800
:1022E000611D181805F09AFA012011990870002054
:1022F000E8E700003004002033070000A0BB0D0019
:102300003EB50BF07BFB04460BF004FC082C01D11E
:10231000082813D00A480B4900680622411868466D
:1023200005F07CFA68464079400601D5022000E0BD
:102330000320012302AA0021FFF7F2FE3EBD0000A8
:1023400030040020330700001FB50E480468AE3487
:10235000E078010612D5A178C9070CD0800708D50E
:10236000042069460873684608F0BAFB022009F0A9
:10237000CBF90020E0704006400EE07000F032F82B
:102380001FBD000030040020F0B58DB00C4616A92A
:10239000E0C90021089109910A910B9115990491C6
:1023A00005A9E0C112A962C9009301911346014633
:1023B000039602952246012009F00AF80DB0F0BDFF
:1023C00010B502F0B9FD10BD0A07920F01D04220EE
:1023D00070478A07FBD002788907890F0A43027089
:1023E00000207047704742207047000010B5044637
:1023F000022000F051F80D48002102680920000277
:102400001018A032C36E107B05E04A019A5A002AC8
:1024100004D0491CC9B28842F7D810BD48011C52EB
:10242000C018026904210A43026110BD3004002073
:102430001FB582B0002401F087FC694601F010FC52
:10244000009A6846116A0089203209E023235B5C08
:10245000012B04D10B89834201D1641CE4B20968C9
:102460009142F3D1204606B010BD000010B50446DD
:102470000146042002F074FA002808D004480549F7
:102480000068401821463C3009F016FD432010BD7D
:10249000300400206407000004490A683D21490116
:1024A00051180A7B02430A73704700003004002071
:1024B00000B51138C0B2FFF729FC002804D0012272
:1024C000016952051143016100BD0121890788623C
:1024D0007047012292070029D16901D0014300E031
:1024E0008143D16170470CC8012189070838012B4D
:1024F0000B690BD093430B618268012A08D0002A34
:102500000AD04A69006802434A6170471343F2E700
:102510008A6903681A4302E08A6903689A438A61F8
:102520004A6900688243EFE701218907496A01424D
:1025300001D00120704700207047000038B507F037
:10254000BBFC0E4C800000198038C06FFFF7ECFF19
:10255000012812D107F0B0FC800000198038C06F4C
:10256000FFF7B3FF064800688168684688476846F9
:102570000078012801D10349087038BDBC1E07103E
:10258000DC030020CA030020F0B5027901239B0779
:102590000168002A02D0062A03D006E05C688C435A
:1025A00002E05C6800220C435C6000210F24056897
:1025B000CD40ED07ED0F37D0082909D2DE6A8D0036
:1025C0002746AF40BE431746AF403E43DE622BE096
:1025D0000D46083D082D0AD28D002646203D1F6B72
:1025E000AE40B7431646AE4037431F631CE00D466E
:1025F000103D082D0AD28D002646403D5F6BAE404F
:10260000B7431646AE4037435F630DE017290BD939
:10261000114E8D002746603D368BAF40BE431746B6
:10262000AF400D4D3E432E83491CC9B21A29BED37B
:1026300041790129D968026809D09143D96081792B
:1026400001299968006804D081439960F0BD114365
:10265000F4E70143F9E70000200000400149086069
:10266000704700004000004001218907C86370479F
:102670000021016001718171417170470121890759
:102680000A6842400A607047012902D00349086085
:10269000704701218907C86370470000400000406F
:1026A00003480068AE3080788006800F70470000D5
:1026B00030040020F3B597B00D8848880590081DB8
:1026C0001DC80DAE1DC68C8ACE8A087E1390C869BF
:1026D0002031019008780090487804908878039021
:1026E000C87802900F7900F0BFFD002817D10120B3
:1026F000400284425FD8B4425DD8002F01D1B44279
:1027000059D114A9284601F0ABFA002806D115AA20
:102710001499059801F094FA002802D0602019B0AD
:10272000F0BD149D11A92846183004F04DFA10A8E8
:102730008088002810D0284612A9203004F044FADE
:1027400010A8838800892A8D1818696A10188A8B46
:10275000904203D16120E2E74820E0E715982C4B36
:1027600002899A4227D12322125C012A23D10068D0
:1027700000681690139801281FD16846808E292280
:102780001202801A030008F078FD060418040407FA
:102790000A18022C0FD110E0072C0CD10DE0042CEC
:1027A00009D3E00707D1012F07D1A64203D3042E96
:1027B00001D3F00701D04220B1E702980B90039BB0
:1027C000049A0A9309920098019A0C970890069629
:1027D000059407920DA81DC8019002A81CC013986B
:1027E0000B4600902A461699179800F0B1F9002878
:1027F00095D168460649808EFF31884205D01798EA
:10280000018800200A4601F0CFFD002087E7000084
:1028100003280000F3B5A5B008881A9088780C4604
:1028200011901022091D13A8FDF7D0F8A08A10906E
:10283000A17D68460172E07D0F90207E2090677E2A
:10284000A07E1F90002006460146129020A801811C
:102850000F20BB4C2390BB4920684018199000F012
:1028600003FD00280BD101211098490288425FD84E
:1028700021A91A9801F0F4F9002802D0602027B0AD
:10288000F0BD2198179001F05FFA1A9988420CD197
:1028900002A801901698009013AD0ECD1198FFF785
:1028A00007FC002801D06320E9E76846017A880622
:1028B000800F05D0012012902068A030007B4600D8
:1028C000C80703D01298401CB61C1290080603D506
:1028D0001298401CB61C129017980DA918301D9024
:1028E00004F072F96846129C808EA41CA04237D373
:1028F00017980EA92030019004F066F96846018F00
:1029000000290DD01798179A6B46406A9B8E128D3E
:102910005918808B5118081AA04201D26120AEE7E5
:102920001798846911982568012803D0022803D0DC
:102930004220A4E7052000E01320E0832A46394620
:102940000F98FEF75CF8422899D0199FE28B403728
:10295000788B398B411A109810188019814201DA4E
:1029600048208CE70EA9019804F02EF96846008FE4
:102970000028179802D0406A808B00E0008D2599CE
:10298000401C0880259801210088A08325980222F8
:102990000088401CA8836C48208120462030179076
:1029A000C1700021817081711998398B406D401878
:1029B0006946A061097A0170A06929461C31401C52
:1029C00004F02CFF11980128A0697DD0102213A9D2
:1029D000C01C04F023FF2846102213A9083004F07D
:1029E0001DFF388B133038832E4620361198F07037
:1029F0001098E8831F98B07010982084109828844D
:102A00001998398B406D4018A8610021109A04F084
:102A100009FF398B1098081838831799012008711D
:102A200017990020487130716846007A810701D5F6
:102A30000121317101070227002902DA3179394376
:102A40003171410703D531790422114331714006B8
:102A500003D530790821084330710F9870712098A0
:102A6000B07121461D9804F0D8F82146019804F071
:102A7000B5F829461D9804F0D0F82946019804F0CD
:102A8000ADF81298002841D068461A998181A18B2F
:102A9000C18107844784012408A8047122A80A90F0
:102AA00008A88473239941730F993820014008A81E
:102AB00001730721C173002505746846007AC007B9
:102AC00008D02248694600E02BE0088203A924A828
:102AD000FFF7F0FD6846007A8006800F07D01B489C
:102AE0006946401E088203A924A8FFF7E3FD684653
:102AF000007A00060AD5292109026846018208A841
:102B00004473057303A924A8FFF7D4FD2598018811
:102B10001298401C081882B2002001F045FC0020E9
:102B2000ADE6022213A9C01C04F078FE284602225A
:102B300013A9083004F072FE388B401D53E70000E3
:102B4000300400206407000003280000032900006F
:102B5000FFB55248524A006887B08218069210AA00
:102B6000109B0126169F9288012B04D14D4B9A424F
:102B700001D1A030067B069D34464035688B2B8BF7
:102B80007C43C31A099820300390A34222DA4820DC
:102B90000BB0F0BD2320405C012819D108896C4698
:102BA000208098420CD03F4C641EA04208D0641C88
:102BB000A04205D0641CA04202D0A41CA04207D1B0
:102BC000384CFF3CA04201D0904201D16220DFE7A7
:102BD000096801E029231B0203988142DAD1099890
:102BE0001B99846918982246FDF709FF4228CFD027
:102BF0001C98012804D11598874201D24220C7E7CA
:102C00001598E083204620301C9905908170278418
:102C10000A98808B401CA0831098012814D020466D
:102C2000102211A9083004F0F9FD05991098C87018
:102C30000698298B406D4018A061298B3846704357
:102C40000818288300250FE011A80FC808340FC406
:102C5000183CEAE72846A16978430818159A17999D
:102C600004F0DCFD6D1CEDB2B542F3D30599189864
:102C7000487105991998087105991A9888710998E9
:102C80002146183003F0C9FF2146039803F0A6FF40
:102C90000798A18B018000207AE700003004002013
:102CA0006407000002290000FFB58FB014460E78BB
:102CB000102205A8891CFCF789FE4F484F4900687F
:102CC000451800F0D1FA00281ED1002C57D0012E53
:102CD00009D16846808A4A49884204D12846A968B1
:102CE000083081424BD12846103029690390814237
:102CF00009D00AA9284603F067FF6846018D601EC7
:102D00000D90814202D2482013B0F0BD2846083011
:102D10000CA9049003F058FF6846008E002814D0D8
:102D2000EF680AA93846183003F04EFF38462030C5
:102D30000CA903F049FF6846398D008D09186846D3
:102D4000008E401C081887B200E001270120000413
:102D5000C01BA04201D26120D6E72C6928680190EF
:102D60001298012802D0022803D008E00520C002F2
:102D700000E024486085012E03D0022E05D04220B9
:102D8000C2E720460830022202E020460830102226
:102D900005A904F043FD2046314620300646017364
:102DA0000F98214607802785039803F036FF2146B8
:102DB000049803F013FF27461837E7616662A7619E
:102DC00026620D9884B20BE02846019903F025FF96
:102DD0003846019903F002FF2868641EA4B20190EE
:102DE000002CF1D10F9801880D98081882B20020AC
:102DF00001F0DAFA002087E73004002064070000C1
:102E00000118000001280000F7B5064636480F46B5
:102E10000068364982B044183046FEF765FE05006A
:102E200060D020462430009009F05CF8002859D189
:102E30002869000356D5009809F00EF804464FE0C3
:102E4000A088B0424BD120223146002004F09EFDE4
:102E5000060018D0A068002F017B427B15D03346B6
:102E60000498FCF7B5FF002001222969D2049143A0
:102E7000296100282AD0692802D03046FFF7F6FAE7
:102E8000002005B0F0BD6420FBE70A2906D00C291C
:102E90000AD00E290ED0082912D023E0324621464E
:102EA000284605F015FFDFE732462146284605F0A3
:102EB000FCFAD9E732462146284605F0F3FDD3E770
:102EC00032462146284605F083FCCDE7214600988E
:102ED00009F00FF80121204604F0B4FDCDE7246885
:102EE000002CADD14120CCE7300400206407000065
:102EF000024608480849006841188868083103E01C
:102F0000038D934202D200688842F9D1884200D1F1
:102F1000002070473004002064070000034610B50D
:102F20000E480F49006841188868083103E0148D85
:102F30009C4203D8104602688A42F8D18A420CD1DA
:102F4000018D994209D20146026A20318A4203D09A
:102F5000416A898B994200D2002010BD30040020C4
:102F600064070000024610B50B48120501680920ED
:102F700000020818C36E0020120DA031097B07E083
:102F800044011C5B2405240D944203D0401CC0B2B4
:102F90008142F5D810BD000030040020F7B5054689
:102FA0001746019808F058FF2E050446360D0CE030
:102FB000A0882568B04207D12146019808F099FF02
:102FC0003946204604F03EFD2C46002CF0D1FEBDD3
:102FD000F0B58BB000206349029063480A6814186A
:102FE00072B610464030C57902231D43C57162B6E2
:102FF00025464035287AC0077DD0092000021018E8
:103000000026C76E49E071017A5A002A43D0C919D7
:10301000069109694A021ED48A0226D5022104912A
:103020000699012309880905090D039139214901F0
:103030004118097C89070ED5D9020830401823228F
:10304000C06C022108F0BAFA010004D0039A8A8009
:10305000049808F09FFA069800880090069800F0FF
:1030600085F8009806F0CEFB15E0480713D50698C2
:1030700000880005000D06F057FB002805D10698D2
:1030800000880005000DFDF7C7FC069904200969BA
:10309000814306980161761CF6B23248AC21006883
:1030A000095CB142AFD805F02BF820462430064623
:1030B00008F018FF012802D0012004F025FF204667
:1030C000183008F00FFF012802D0002004F01CFF88
:1030D0003C34204608F006FF01280FD002A9204604
:1030E00008F029FF0420029901F03AFC0028F0D0F2
:1030F0002046029900E032E008F0CBFE287A000674
:103100002DD5304608F0EEFE012828D1002004F02D
:1031100019FCA98B23314909491CC9B2FCF72CFCC5
:1031200000281CD00F4D044628680123D90208301E
:10313000401842263822C06C314608F03FFA0100A0
:103140000DD000228A80CC80304608F023FA3D2141
:103150002A68490151180A7B802082430A730BB008
:10316000F0BD00003004002064070000F0B5044604
:103170003B483C49006885B04518218A890419D527
:1031800002210491392149014118897C412627886F
:103190000123C9070ED0D902083040183122C06C73
:1031A000022108F00BFA010004D08F808E71049880
:1031B00008F0F0F92946208801221831FFF7EEFEC9
:1031C0002946208801223031FFF7E8FE2946208871
:1031D00001222431FFF7E2FE2946208800223C31FB
:1031E000FFF7DCFE20880005000DFFF7BBFE850021
:1031F000294611316846017307F072FC29461231E5
:103200006846017307F06CFC294613316846017368
:1032100007F066FC68461435057307F061FC2088EA
:1032200000F03CFA208801050D48090D02681320C2
:10323000C0011018028A914201D100210182E06987
:10324000002802D0012104F0FDFB202200212046AD
:10325000A56804F0E7FA1720A560608005B0F0BD0E
:10326000300400206407000010B50B480B490068CB
:1032700044184034207AC00709D0002004F062FBD3
:10328000217A890701D5002803D0002010BD4720EE
:1032900010BD642010BD0000300400206407000051
:1032A000F0B55FA099B000685E4915905E4A086865
:1032B0008418092212028218D26E254640351492D3
:1032C0002A7AD20702D0622019B0F0BDAA8B01235E
:1032D0005B029A4201D9AB8303E0172A01D217227D
:1032E000AA83149AA0301392067B0DE0761EF6B2E4
:1032F000139871010F18B8680F90384620220021EA
:1033000004F090FA0F98B860002EEFD120460830F4
:10331000E0606460A0602460083013906061206108
:10332000FF220021083008F0ACFD2046FF220021DA
:10333000243008F0A6FD2046AA7F0021303008F096
:10334000A0FD2046FF2200213C3008F09AFD00221B
:103350002A7210461721334B05E0149E4701BE190F
:10336000401C7180C0B21E68A036367B8642F4D8FD
:10337000002028832F8C688C0026149008E02820D9
:10338000E16C70430918204603F028FC761CB6B2A5
:10339000BE42F4D3002608E03020216D70430918A6
:1033A000139803F01BFC761CB6B214988642F3D334
:1033B0000120FFF771F80124684604701B49418021
:1033C0002346042269460CA8FFF76EFC002822D190
:1033D0006846018E8182164901830426068584751C
:1033E000202108A881720024C4720473072141734C
:1033F000847305A90DA8FFF70DFA00280BD16846C4
:1034000004874687818E15AB0EAA008E00F0FEF968
:10341000002800D158E700202872472054E7000018
:103420000000FFFF300400206407000001180000C6
:10343000052A0000F8B5044683480E460068834913
:1034400047184820C05DC0076FD0B088FEF74CFB1E
:103450000546012C02D0002C68D0F3E0002D04D0EA
:103460002869410703D54520F8BD0121C7E0B268AE
:10347000F188147B0029F0D062060AD5688888425A
:10348000F3D3D22C01D0522CEFD13846314618302C
:1034900048E0A106890E1E2949D81E2C20D101071B
:1034A0001ED50821884328612988012007F0F4F8F7
:1034B0000121304604F0C6FA634801230068D902AE
:1034C0000830401842242D883922C06C214608F06B
:1034D00075F8010003D08D80204608F05BF8B1E05C
:1034E000E1070BD01D2C1AD01B2C18D0410533D46A
:1034F000012189020843EE612861A3E0C00606D5D8
:103500002B4602220321422008F00AFCADE729885D
:10351000002007F0AFF829691020014329613846DF
:103520003146243008F0C8FC8CE015E016E029880C
:103530002022002004F02AFA05000DD00121304697
:1035400004F080FA2B46002221460620FCF740FCBE
:103550002846FEF78BFF75E04120F8BDB068047B7C
:103560001D2C3CD01B2C43D00021304604F06AFABD
:10357000002D67D0032C46D0052C44D0072C42D018
:10358000092C40D00B2C3ED00D2C3CD00F2C3AD027
:10359000112C38D0132C36D0172C34D0192C32D013
:1035A000012C30D0022C35D0042C33D0062C31D055
:1035B000082C2FD00A2C2DD00C2C2BD00E2C29D03F
:1035C000102C27D0122C25D0162C23D0182C21D02B
:1035D000522C1FD0D22C1DD01E2C2FD032E0002D0B
:1035E00003D02988012007F045F83146022001E088
:1035F0003146012006F03AFF002823D00021304652
:1036000004F020FA1EE029691020814329612988ED
:10361000002015E02869402188432861010511D563
:10362000FF210131084328612988022007F022F890
:1036300001202969C0028143296103E02988032010
:1036400007F02AF80020F8BD3004002064070000CD
:1036500010B5104A104B1268D2184032127AD207B5
:1036600006D002280AD0052804D00B2810D101E08A
:10367000412010BD4888FEF7B9FE09E04888FEF7F2
:1036800033FA002804D00122016992051143016137
:10369000002010BD3004002064070000F1B5FFB029
:1036A00085B047200190002069460880534854495E
:1036B000006847188498FEF717FA0290002874D023
:1036C000B96808374FE0684600880D4604AC2018FA
:1036D0006B46022228310EF032FA684600882946ED
:1036E00020186B4601222C310EF029FA2E46203686
:1036F000307B69460128098804A809D040186B4628
:103700001022294608310EF01AFA01902C6A27E09F
:1037100040186B460222F4E76946098804A840185D
:1037200021466B4602221C310EF009FA69460988CF
:1037300004A8401821466B46012223310EF0FFF900
:103740002320005D69460128098804A830D040186C
:1037500021466B46102208310EF0F1F901902468E1
:10376000B442D9D12968B942ADD1019800281CD101
:103770006846008881070AD0224A011D11406A4626
:1037800011800A1A04A908180B2104F04BF80298BA
:10379000008805F0C9FF002807D184986946000514
:1037A000000D04AA098805F095FC7FB006B0F0BDB5
:1037B000401821466B46022208310EF0C0F90190F4
:1037C000208911498842CAD120460299FEF76CF837
:1037D0004000A16903906A460918128804A880185D
:1037E0006B4602220EF0ABF90190A1690398022208
:1037F0000818002104F016F8B1E70000300400209A
:1038000064070000FCFF000002290000F0B5074635
:1038100017480E4600683D2149014018007B85B0DD
:103820001D461446C00706D003A9384600F018FA12
:1038300000280AD102E0472005B0F0BD04AA3046B6
:10384000039900F0FDF9002801D06020F4E7049905
:10385000228860880968002A00D0088C32466E46AB
:1038600031C603233946002000F004F8E4E70000E5
:1038700030040020FFB5002099B0239A0B901290DD
:1038800005461490064615901C46DB480B4600681A
:10389000DA49229F4118039100210891099151882A
:1038A000069111880A913D2149014018007BC0070B
:1038B00006D00FA9184600F0D3F900280AD102E07B
:1038C00047201DB0F0BD10AA0F991B9800F0B8F961
:1038D000002801D06020F4E71998002803D0600781
:1038E00001D5012000E000201390A007800F1C905C
:1038F000109817902030C078012840D11798C04BFD
:1039000001899942F9D11798069904680A98228C7E
:103910004118914233D820462030169080780128F3
:1039200016D0E08B04901798806900788006800F8D
:103930007ED0039840301890007A800778D51C9884
:103940000028F5D0AE4F0F99FF372031206814E0E2
:10395000BA4214D3B942DDD80497E4E70389A84AF0
:10396000934203D12322125C012A08D0BB4203D127
:103970002322125C012A03D000688842EED134E190
:1039800005900028FBD09C480921026809025118C3
:10399000C96E0027009162E0780100990390085AEF
:1039A00001055AD01999002901D0884255D10599AD
:1039B0007A008B69511C595C9A5C0902891889B29A
:1039C0000D91890749D002220599FCF795FD002841
:1039D00004D01998002840D0652072E7002008A97B
:1039E000C8551C98C00718D0179880690078C00681
:1039F00013D50D98C00710D00120C8550543009A73
:103A0000039880184088159A904206D91590009A1C
:103A10000398105A0005000D14901C9880071CD5BF
:103A2000179880690078800617D50D98800700E008
:103A300083E012D50220CA5D05430243CA550099AE
:103A40000398401840881599884206D91590009926
:103A50000398085A0005000D14907F1CFFB26648B9
:103A60000068A030037BBB4296D8002D65D0189823
:103A7000007A00065FD46048016809200002081837
:103A8000C16E00201BE042018E5A360515D0AE07EC
:103A90000BD556183669B7070DD408AF3F5CBF0782
:103AA00003D5360701D546200BE7EE0705D052189F
:103AB000127CD20701D0432003E7401CC0B28342EE
:103AC000E1D81598C01E86B20498864200D90646F1
:103AD000A8070FD520220020149903F057FF129059
:103AE00000287DD0F01C82B20021129804F027F942
:103AF000002811D1E80720D020220020149903F0DB
:103B000045FF0B90002807D0F01C82B200210B98D3
:103B100004F015F9002810D08020FEF7BDFC1298A3
:103B2000002802D0002103F08DFF0B98002802D05E
:103B3000002103F087FF6420C3E6A1690A98069A72
:103B40000818249903F06AFE16988078012801D19C
:103B50000498E083002D46D0274B09201968000205
:103B60000818C16E002008AA0CE04301CF5A3F0597
:103B700006D05F18BC463B69175C3B4367463B6118
:103B8000401CC0B21C4B1B68A0331B7B8342ECD88B
:103B9000A8070DD512980090F01C82B221461C3166
:103BA0000220A369FCF7F6FE0220129906F05EFCE3
:103BB000E80718D00B980090F61C2146B2B21C31D1
:103BC0000120A369FCF7E6FE1398002805D00B98A6
:103BD0008021C07C08430B99C87401200B9900E038
:103BE00005E006F043FC00206BE6422069E68020F9
:103BF000FEF752FC9FE7000030040020640700003D
:103C000003280000F0B58468083015E0258D8D424A
:103C100003D1146018600120F0BD26461C602036D8
:103C2000256A06E0AF8B8F4202D102201560F0BDFD
:103C30002D68B542F6D124688442E7D10020F0BD5A
:103C400010B50B6A203106E09C8B844202D1002023
:103C5000136010BD1B688B42F6D1412010BD0000DF
:103C600010B5094A094B1268D2189368083206E069
:103C70001C8D844202D100200B6010BD1B68934252
:103C8000F6D1412010BD0000300400206407000080
:103C9000F8B5204E04463568AE3500F033FA207092
:103CA000000A607000F02EFAA070000AE07000F0C8
:103CB00029FAC2B28004830E227100216371084682
:103CC000275C401C7918C0B289B20628F8D30029B5
:103CD000E3D02078FF280CD16078FF2809D1A078A4
:103CE000FF2806D1E078FF2803D1FF2A01D1FF2B5E
:103CF000D3D00622691D204603F08CFD0028CCD0CD
:103D0000316806222046783103F084FD0028C4D0B3
:103D1000F8BD00003004002001490968896808479F
:103D2000D803002008B506480068816868468847BF
:103D300068460078012801D10249087008BD0000DA
:103D4000DC030020CA03002002480068AE3000886F
:103D5000704700003004002010B50F4C002803D03D
:103D6000012809D002280FD006F0A6F80C214843FC
:103D700000198038406F10BD06F09EF80C214843B2
:103D800000198038806F10BD06F096F80C2148436A
:103D900000198038C06F10BD941E071010B503497C
:103DA00006220968B33103F039FD10BD300400204C
:103DB000F7B5164600241CE0009811490019401878
:103DC000810801988900001942780578120215438C
:103DD0008278C07812040006024309481543404225
:103DE0000F1829463846FDF70DFD3868854204D185
:103DF000241DB442E0D30020FEBDFB20FEBD000028
:103E00000000FCEFF0B50E460746002407E03D1920
:103E100000F078F92870000A6870A41CE4B2B4427B
:103E2000F5D3F0BD30B5124A114C283A114BD16987
:103E30000906090F4170D2691207120F82702268B9
:103E40000D4D01244260AA4208D11A680B4B9A42D8
:103E500001D1042200E00222027000E00470002977
:103E600000D144700649898A491C8900816030BDAF
:103E7000280090401C00001041A0000244A000F265
:103E80000000104010B5012818D8072916D80C4A90
:103E9000126813462033187759778007C906000E39
:103EA000090E01430020074BA03204E08401E4180E
:103EB000A172401CC0B2147B8442F7D8002010BD10
:103EC0003004002000010020074A914202DC5242E7
:103ED000914200DA1146FF22993251430A125118D9
:103EE0000A14511808187047FFFF4F00401AC010FD
:103EF000810040180012704710B50920C006006903
:103F00000002000A06F018FE10BD70B50D4604460A
:103F1000FFF7F2FF2946FFF7D7FF0146204600F0E2
:103F200001F870BD1FB56A463A30107368460291B9
:103F300006F09CFD002800D0012004B010BD000058
:103F4000012801D10149487070470000C8030020D2
:103F5000F0B54F4F0446386885B078300D461646A8
:103F6000002C10D0062C14D0082C0FD0182C0DD0FB
:103F7000282C0ED02A2C0CD02C2C0DD02E2C0ED070
:103F8000D02C47D048E0062D0FD045E0102D0CD0A6
:103F900042E0022D09D03FE0012D06D03CE0062D85
:103FA0003AD17179890903296FD100192A4631461E
:103FB00003F034FC2C2C26D13078002823D009F0D3
:103FC00091FC012822D01B201F304009401C4100D9
:103FD0004118012003F0A4FC09F084FC012817D04B
:103FE0001B201F304009410041182A484078401AE0
:103FF000C01EC1B2002003F093FC3868F9224030A3
:10400000017811400170002005B0F0BDFB20DBE716
:10401000FB20E6E7012D04D009F064FC012804D060
:1040200005E0107805F0AAFDEEE7D12C02D02F2C88
:104030001ED02AE0082D28D102223146684603F01E
:10404000EDFB0222B11C01A803F0E8FB0222311DA6
:1040500002A803F0E3FB0222B11D03A803F0DEFB7C
:10406000684683890289818800880BF081FDCBE74F
:10407000012D0AD13078002807D0082805D249221E
:104080003968520189188876BDE71220BCE7000024
:1040900030040020800B002070B5184C07212068E8
:1040A0000902411800260E77154B4E770622FF2194
:1040B000C01803F0B7FB392520686D01401906715F
:1040C0002021417109F00EFC012814D01F20216825
:1040D0000B4B491988712068093307220021C01849
:1040E00003F0A0FB064B206810330522FF21C01807
:1040F00003F098FB70BD5F20E9E70000300400206A
:104100001E07000000210B200007026852070DD592
:10411000026804239A430260026808231A4302607B
:1041200004E0491C052901DD002070474268920720
:10413000F7D54168C907FCD0806880B2704710B5D8
:10414000FFF7E0FF0446FFF7DDFF0004201810BD75
:10415000FEE77047704710B50A888B884C881A4371
:10416000CB88640023431A430B8949891A43C90346
:104170000A43C26010BD81637047017470470168D3
:104180008022114301607047006B084000D001207D
:10419000704740690007800F7047000070B5044603
:1041A00000680D4640084000206020680321490354
:1041B000884369798907490C084320606879224956
:1041C0004000085A2968214A4843101A204A3026DC
:1041D000914209D84900FBF7CFFB2168B143216028
:1041E0006168320389B20EE01A4A91420DD84A0042
:1041F0008918FBF7C1FB2168B14310312160616868
:10420000012289B25204891861606168EA88890ACA
:10421000890211436160218D208520680621884331
:1042200029798907490F08432060297A0820012944
:10423000216806D081432160206801210843206065
:1042400070BD0143F7E70000D00200200024F40015
:10425000A0860100801A0600007E704703490160B5
:10426000002101714171C180017270478813000003
:104270000068000601D50120704702207047000049
:10428000F0B5454C13252668ED01701980690027AB
:10429000416B4248AE368DB0814242D0062168461D
:1042A000FFF7B0FD69464879C02108436946487167
:1042B00020680622401980692430FFF779FD0746FF
:1042C000102105A8FFF79EFD206810224019806983
:1042D00005A9001DFFF76CFD0743102109A8FFF792
:1042E00091FD206810224019806909A91430FFF758
:1042F0005FFD0146394313D120682949401980697F
:10430000264F401880088100264808183946049036
:10431000FDF778FA04980068B84201D1002700E060
:10432000FB27226850198069A632243001900620AC
:104330000146009000200AF052F8002802D12068BF
:10434000A6300190701D009A019903F067FA226867
:1043500010263146002080320AF041F8002807D0AC
:1043600020683246411989698030091D03F056FAE8
:1043700022683146002090320AF031F8002807D038
:1043800020683246411989699030143103F046FAA9
:1043900038460DB0F0BD000030040020AAAAAAAA39
:1043A0003400FCEF0000041030B50F4B0F4D1B68BC
:1043B00004465B1940331B7A412085B09B0710D51A
:1043C0006B469981DA81002018820420588203AA62
:1043D00004A96D4607C502231A4601212046FFF7AE
:1043E00049FA05B030BD0000300400206407000029
:1043F00038B5002268460270124C114912482161FA
:10440000606112487D2343700D2303708270C27077
:1044100002710222827143710122C27102724272E0
:104420000968884701220D21684605F0C9FF206907
:10443000816806480C38884760690068804738BD45
:104440005C030020C80300209C030020540B0020C4
:10445000074810210170042101710822C270012255
:104460004271427081701838C0680168004808477E
:10447000E0030020024600200146535C002B00D0E0
:104480000120491CC9B20629F7D3704702480068C9
:104490002030C07F704700003004002070B50E4609
:1044A000054601462022002003F070FA040023D0C4
:1044B000284600F0E5F8050027D02879B04224D13D
:1044C000A87880071FD4A06801210173A06800218B
:1044D0004673A06802268673A068C173A068017441
:1044E000A06841740620E0802146052000F038FADB
:1044F000002803D0412509E064250BE0A87830436B
:10450000A870002506E0462500E04225002120464F
:1045100003F098FA284670BDFEB5048841880191E1
:104520008688C78800890090204600F0A9F8050019
:1045300066D0E878002863D0A8780007400F01D043
:1045400046255EE020222146002003F01FFA0400E9
:1045500048D001992C48891F81424BD8B11F814214
:1045600048D80198B04245D8FF20F530874241D263
:104570000099781C7043890088423BD822490098F2
:10458000091F0A38884235D8A06812210173A06833
:10459000E9784173A06808218173A0680021C17384
:1045A000A068019901740199A068090A4174A06882
:1045B000310A8674A068C174A068390A0775A068BA
:1045C0004175A068009981750099A068090AC175B4
:1045D0000C20E0802146052000F0C2F9002803D01D
:1045E000412508E064250CE0A87806210843A8705E
:1045F000002506E042250021204603F023FA00E0D2
:1046000042252846FEBD00007A0C00007CB5144609
:104610000D4600281ED1052D02D00B2D07D011E02C
:10462000627921796088A31D05F0F0F90AE021463E
:104630001231881F01910090627921796088A31D51
:1046400005F0FBF921462846FFF702F821462846E7
:1046500000F0B4FA7CBD70B505460C46002000F0B1
:104660000FF800280BD02905090D01800021817069
:10467000002C01D10821817001210171C17070BD30
:1046800030B502460A4801230068DB020021C31846
:10469000A030047B07E0586B0D0140190588954256
:1046A00004D0491CC9B28C42F5D8002030BD0000AE
:1046B0003004002030B50A49012309680246DB02B4
:1046C0000020CB18A031097B07E05C6B0501641961
:1046D0002488944203D0401CC0B28142F5D830BD3A
:1046E000300400208068017A407A0002081880B205
:1046F0007047000070B50023134A1DE00125ED024C
:1047000040191901466B0024C81C34541068401924
:10471000466B081D345410684019406B44521068B1
:104720004019466B08460830345210680C31401965
:10473000406B5B1C4450DBB21068AC21095C9942B1
:10474000DCD8002070BD00003004002010B5024607
:1047500088680C46817AC07A0002081881B2E08825
:10476000001FE080042909D005290CD006290FD0AC
:104770000121204603F066F9002010BD21461046B5
:10478000FEF758FE08E02146104600F03FF903E02E
:104790002146104604F03CFF0028EED0E188091DB8
:1047A000E18010BDF3B581B00D4600268888FFF783
:1047B00067FF070056D0287B3C460834009002284B
:1047C000F86833D0002845D0E888002810D0218828
:1047D00040182080284603F0AFF8014660688068E2
:1047E00002F033FA0120616803F066F80020E880E7
:1047F0002088042828D36068FFF774FF001D2188F3
:1048000080B2814226D881421BD16168C88061682C
:104810000198FFF79BFF0146002000290ED0616838
:10482000A94201D16060208045261FE0002801D008
:104830004526DDE76560E8882080D9E76060208054
:104840000BE0452E06D008E0452E06D1384600F094
:10485000C7F90BE0384600F0C3F9002E06D10098E6
:10486000012803D10121284603F0ECF83046FEBDB3
:10487000024610B50020002A05D0012A02D11046B8
:10488000FFF790FF10BD1046FFF760FF10BD70B539
:104890000546801E0C46030006F0EFFC0A0C1D1DA9
:1048A00006170B0B0B0B060B0A4620782946FFF761
:1048B000ADFE70BD2846FEF7CBFE608804F0EEFF2B
:1048C0002146284600F07AF970BD4A890888A11C63
:1048D00005F0DCF870BD62880978284604F0FEFF18
:1048E00070BD0000F0B585B0FFF7E4FE1B4D044637
:1048F0002868A030007BA0422DD92046323069467E
:104900000873684606F0ECF801262868F60280195C
:10491000426B002124011153286827468019426BFD
:10492000E01C115428680C378019426B201D11546B
:1049300028688019406BC05900280CD0012103F071
:1049400081F8296800208919496BC851296889199B
:10495000496B0834085305B0F0BD00003004002056
:1049600010B50C460146042805D0052903D00629B8
:1049700001D0502010BDA068A2790272E088020A1E
:10498000A0684272A0688172A068090AC172E088BA
:10499000001DE080022020732046FBF79DFB0028CD
:1049A000E8D0E088001FE080412010BDF8B5323823
:1049B00001060220144E009001253068ED020C0D16
:1049C000421939214901526B4118C97B175B0123F8
:1049D00049070CD5083040191E220221C06C06F090
:1049E000EDFD010003D08F80009806F0D3FD316803
:1049F000002049194A6B211D505431684919496BEF
:104A0000E41C0855F8BD000030040020F0B50D4648
:104A10008DB000210A91A96800280F7B02D00128DF
:104A200022D0C3E0A888FFF745FE624E04463068F6
:104A3000A030007BA04215D9122F08D15E48029009
:104A40002046323069460873684605F0FDFF0120B4
:104A50003168C0020818406B210140188178FD229E
:104A60001140817000219EE0A888FFF723FE0646D2
:104A70005048AC220168525CB24218D90120C002F1
:104A80000818406B32018418A278100710D5122F35
:104A900010D1500710D4A9882A46422007F08EF979
:104AA000A07804210843A070A868407B207179E0B9
:104AB000132F0AD0012F41D0A868417BA888FFF7A7
:104AC000EDFC0A9000286DD070E0A868E778437B81
:104AD000BB4267D1520765D5027C407C01230002AE
:104AE000101887B242200490A8880690392040010F
:104AF0000818C07B80070FD5D802083108181D227E
:104B0000C06C049906F05AFD010005D0069A8A800F
:104B1000CF80049806F03EFDA078FB210840A070ED
:104B2000E078401C0006000EE07001D10120E0702A
:104B300068463236067305F0D3FF33E0100731D4F0
:104B4000A868E178407B88422CD150072AD5FB2009
:104B50000240A270E078401C0006000EE07001D117
:104B60000120E07068463236067305F0B9FF11483F
:104B7000202200689101083040184224AE880223A8
:104B8000C06C214606F01AFD01000BD0A868437BDB
:104B9000877BC07B8E80000238188B71088120468D
:104BA00006F0F8FC0121284602F04CFF0A980DB0EF
:104BB000F0BD0000300400203075000010B5022860
:104BC00009D0052801D00B2808D10846097940886A
:104BD000FFF741FD02E04888FFF784FE002010BD8A
:104BE000F8B50546807810210843A870422000904F
:104BF0001148C901006801270830401802263B46C9
:104C00002122C06C009906F0D9FC04000AD027715B
:104C1000667132462946A01D02F000FE214600982A
:104C200006F0B8FCE868002805D0012102F00AFF70
:104C30000020E8602881F8BD30040020FEB50F4652
:104C40000646002408F066FF054608F0D7FE082D4A
:104C500001D3082811D202A9684600F0EDFA002F0E
:104C6000684606D04079400601D5022102E00321C2
:104C700000E0017AB14200D041242046FEBD000090
:104C8000FFB507468DB000200890079077481E4674
:104C90000168774815460C18232040010818477111
:104CA000C271002B01D0002101710E9800287DD027
:104CB000FFF7E0FB002879D0002E03D020342079C4
:104CC000012873D0FF24002E07D0022D02D0032D1F
:104CD00002D002E0002500E0012564486549006833
:104CE00040180B90022F01D0032F6AD1684605703F
:104CF0000622401C0E9902F091FD6946002002F048
:104D0000FFFEFF2803D00B99C2005118CC79112364
:104D10009B015649002E14D00968CA1894762323A3
:104D200000225B01C9180A71FF284AD0372044438A
:104D30004E48FF2100682F312018095C002904D05B
:104D400015E00A68D1188C75EEE70146FF31FF3097
:104D500047311F3002F0F0FF444806220068211856
:104D6000FF3105A8483102F059FD012007903F4965
:104D7000FF2208684E322018125C002A1CD101461E
:104D8000FF31FF304031303002F0D6FF3748062285
:104D900000682118FF3103A8413102F03FFD0120D6
:104DA0000890002E08D00121304800E018E0026889
:104DB00023204001101801710798002801D0002E0F
:104DC0000AD0324629460E9800F0A6FE0898002820
:104DD00006D0012103A815E03246012105A8F3E71A
:104DE000002F06D0012F1AD0022F02D0032F07D197
:104DF00015E01E48062201686846783102F00EFD73
:104E00000021684600F0F2FE0124A402002F10D019
:104E1000012F16D0022F0CD0032F24D111E01348FC
:104E20000622016814480918684602F0F7FC0121BF
:104E3000E7E70E480068816F041909027B30E165DD
:104E40000CE00A4805680C482818FAF7FFFD000234
:104E50002C19401CE0650848C01C2818FAF7F6FD1C
:104E60000002000A2066002011B0F0BD30040020CE
:104E7000580800006C0400003307000070B5403093
:104E8000018942880025914200D31146C38A028AD3
:104E9000934200D21A46C48883889C4200D223469B
:104EA000868A448AA64200D2344646898E4200D081
:104EB0000125C189994200D00125018B914200D082
:104EC0000125408BA04200D00125284670BD10B5B9
:104ED000FFF7D4FF10BD70B50C46054602224831DD
:104EE000C01C08F09AFC214602225631681D08F0C9
:104EF00094FC214602224631E81D08F08EFC214632
:104F0000284602225431093008F087FC40342089B9
:104F10001B211B2800D22181E28AFF2049308242D6
:104F200000D2E082E2881B2A00D2E180A18A81427D
:104F300000D2A08270BD000070B50D460B49002460
:104F4000884204D8032108F07DFD082801D30224FB
:104F50000AE00749012209682031C97D82401142D7
:104F600002D1294600F0D2FA204670BDFF0E0000A3
:104F700030040020F0B5824D04468249286885B08F
:104F80004018019008F03AFD002C7DD008280DD380
:104F90004220074603907C480024029008F096FDCA
:104FA0000090082004900098082802D30C2005B037
:104FB000F0BD00F00DFD00F0FDFB0098734980018D
:104FC000421813212868C90140188188019880304F
:104FD000036BC0315980016B09800021C9430182F4
:104FE0000021456ACB1DEF54856AEF54C56AEF5422
:104FF000056AEF54066B039DF554039B3F0A1B0A99
:105000000393466A029D0B1DF554866AF554C66AE1
:10501000F554066AF554066BF554029B491C1B0AAD
:10502000C9B202930329DCD3009911234907090E61
:10503000456A0B43AB72856AAB72C56AAB72019B62
:105040001D7E0223022D0BD1456AAE7A1E43AE723D
:10505000856AAE7A1E43AE72C56AAE7A1E43AE72E0
:10506000466A0127F772866AF772C66AF7721943B1
:10507000036B9972036A9972036B0321D972016AF7
:10508000CF7200210B4600E04EE0535455186B716F
:10509000491CC9B20529F6D38025957201992031A2
:1050A000CE7BD672868C1682068E5682384E9661DC
:1050B000384ED6613E462027BE54D375019A127EE3
:1050C000002A04D0012A04D0062A12D110E01824A4
:1050D0000FE00322836828245202934209D1C36857
:1050E000934206D100220492FF225632028200E04F
:1050F0001024497B002904D0012904D0022906D1BB
:1051000003E0C02102E02C4301E040210C4304995C
:10511000C2680902806853184218E108C900491C96
:1051200000980AF0D7FE42E772B608280CD209218F
:105130002A68090251188B6E60214143891C5C5C0E
:105140006407640F012C01D062B616E0F024A45C61
:10515000002C04D01126FF24B60192199475002268
:105160005A543F212A68490151180B7F012282407D
:1051700093430B7762B60CF03DFE002017E700006A
:1051800030040020580800008100B000CC0000204E
:10519000D6BE898E55555500FFB50C4691B00146D7
:1051A000102204A802F03AFB1022214608A802F0BF
:1051B00035FB04A8009008A801900CA802900026D6
:1051C0006846067318481949006809274518FF06FC
:1051D0002C46803472B66846007B002808D062B640
:1051E00010220CA9139802F019FB002015B0F0BD95
:1051F000286D3969401A0E4900020988000A09071A
:105200000BD51499002908D10A49FF38884204D3E4
:1052100068460673606430BF03E06846666408F061
:1052200063FB62B6D6E70000300400205808000097
:10523000C000002002FF7F0070B5044608480D46FC
:105240000068084946182046316808F0CDFF7268AA
:105250002271100A6071100C2870002070BD0000CF
:10526000300400205808000070B50D46044608F0D0
:10527000C5FB082801D31F2070BD094809490068F3
:1052800040180022416B931CC95CA154521C062A91
:10529000F8DB406B00784006C00F2870002070BD1E
:1052A000300400205808000010B504460448807AF5
:1052B0008006400F08F0BAFA2070002010BD0000F0
:1052C00000010020F8B50C46054608F023FC08282C
