:020000041004E6
:1000000000600020F9760410E5690410ED4A041040
:10001000AA5555AA45554C420000000000000000BA
:10002000000000000000000000000000A18E04108D
:100030000000000000000000E16F041001930410B4
:10004000532F0410B56A04100000000000000000E7
:10005000D19604109F8E0410711504102598041079
:100060000000000000000000000000000000000090
:10007000000000007D0B0410F14A0410EF4A041048
:10008000000000004D630410F5630410F7630410D2
:10009000F963041019770410CF6A0410D51A0410FC
:1000A0000000000000000000000000000000000050
:1000B0000000000000000000000000000000000040
:1000C000EFF31482EFF309811C4880F31488BFF327
:1000D0006F8FF0B543464C4655465E466746F8B4CA
:1000E000174CEFF30883236006B4164C2068164CB7
:1000F0002060164C2068164C2060164C2068164C68
:100100002060164C276800202060BFF34F8F30BF5F
:1001100027600B4C246884F3088882B003BCF8BCC9
:100120009846A146AA46B346BC46F0BC04BC80F340
:10013000098881F31488BFF36F8F10470000000017
:100140000800002004ED00E0DC02002024ED00E0C7
:10015000E002002000E200E0E4020020080020406D
:100160000448854600F000FC0048004775E504108F
:10017000C046C0460060002030B50B460146002056
:100180002022012409E00D46D5409D4205D31D469D
:100190009540491B2546954040191546521E002D95
:1001A000F1DC30BD10B5441A0346944209D28318DD
:1001B000891803E0491E0C785B1E1C70521EF9D290
:1001C00010BD0C460443A40703D009E010C9121F58
:1001D00010C3042AFAD203E00C781C70491C5B1C83
:1001E000521EF9D210BDD2B201E00270401C491E6D
:1001F000FBD270470022F6E710B513460A460446C4
:100200001946FFF7F0FF204610BD30B50446002028
:10021000034600E05B1C934203D2E05CCD5C401BD4
:10022000F8D030BD0321001D401E037812021A438E
:10023000491EF9D510467047F8B502464A40D40F1A
:1002400042004B0052085B089A4202D2024608461E
:1002500011464A0023D0C30D4A00DDB2120EAD1A7A
:10026000202D35DA49020126490AF6058A19002CA3
:1002700000D0524220214F1B1146B9402A4110188C
:10028000C20D9A4221D0002C17D0012D08DCDA05CE
:10029000801AD20F8019D207DBB200F0CCFAF8BD79
:1002A000DA05801A012340001B06C01880185A4244
:1002B0008018CA0F1043490007E04908C2071143DC
:1002C000DA05801A80194008801800F0ACFAF8BDF1
:1002D00061000122511A001BF7E70122D2075140A9
:1002E000AAE70122D2075040A6E7024670B54A406D
:1002F000D30FDB0740002DD04A002AD0010E140E88
:10030000000212020919400A520A8418E501044643
:100310005443000A120A2E045043A4194219200C17
:10032000C543AA18120C0125AD03521C5219120420
:100330007F39240400D0521C104301D44000491ED0
:10034000C2B20C06C0092018401C4008802A02D006
:1003500003E0002070BD40084000002900DA0020C2
:10036000184370BD70B502464A40D50F40004A00A0
:10037000ED0740085208002814D0002A12D0C40DFE
:10038000D30D41020120C0055202490A520AE41A63
:10039000091812187D34914201D3641C00E0490011
:1003A000002C01DA002070BD0023914201D3891A8C
:1003B0000343400849000028F7D100290AD09142A0
:1003C00002D10121C90705E0914201D2012101E0DA
:1003D0000121C943E005C018401900F024FA70BD9E
:1003E000F0B507460846584087B0C00F0490480053
:1003F0000E46590040084908BC1A884105D23846C3
:1004000031461E4617460B46024658004008104328
:100410004DD0300D039040055900400D490D059019
:10042000401A0290402873DA18030121000B0905D5
:100430000843019004980092002806D01146019AC2
:1004400049420020904100910190029840210A1AEF
:100450000199009800F0C4F905460C466B4607CB9D
:1004600000F0CEF9C0197141039A0E0D0023D71781
:1004700056401A467A40164344D0049A002A2DD09A
:10048000029A012A039A15DC1205C01A914101262D
:100490003605001C7141D20F059ED20700930192D0
:1004A00002962A46234600F00CFA07B0F0BD384603
:1004B0003146FAE71605234A0F46B218C01AB7416B
:1004C00001210905001C4F4100187F4111461818F1
:1004D0007941E20F10436D19644113E0E2076D08A2
:1004E00015436408C2071443039A01261205C01A73
:1004F00091413605001C7141CE0740083043490840
:10050000C01851412A46234600F0CEF9CDE7FFE757
:10051000049801224000C117121A00238B4104984D
:100520003146C417381AA141EEE730B40124E4077C
:10053000634030BC54E730B40124E407614030BC70
:100540004EE700000000E0FFF0B51FB488B00B9943
:100550000998002448400999C00F490049080991A9
:10056000C0070B990090490049080B910999089818
:10057000A64608431CD00B990A98084318D009983E
:1005800001244000420D4800410D09982405000354
:10059000000B204309900B980003000B20430B90A5
:1005A00050181C494018002201901446104605E0DE
:1005B000002001460DB0F0BD032801DA034600E03B
:1005C00003239C46C11A0AAE0AE05F0008ADED5B4A
:1005D0004F00F75B7D430027AA187C41491C5B1E36
:1005E0006145F2DD410004AB5A522104120C0A436A
:1005F000240C401C0828DFDB01980290009970460B
:1006000001910090059B049A0799069800F059F90A
:10061000D0E700000DFCFFFFF0B50C465C4085B054
:10062000E40FE40703944C00002664085900944644
:10063000490802460296224321D062460A431ED050
:100640006200570D4A000E032303550D0124024694
:100650002C492405781B1B0B360B401823432643DB
:10066000614600901C46501AB44103D30098401CC8
:10067000009002E0921800985B41002803DA002005
:10068000014605B0F0BD0020012109050746864658
:1006900011E064461D46141BB54106D36546521B46
:1006A000B341744607430C43A646CD0740084908AA
:1006B000284392185B4105460D43EAD11046184382
:1006C00013D06046194650407140084306D060463A
:1006D000101AB34106D20122002306E000220123B2
:1006E000DB0702E00122D243531000987446010553
:1006F000381C6141029C039D0019694100F0D4F847
:10070000BFE70000FD03000070B54B005B0803432A
:100710000BD04B005C0D002633466542B341D41725
:10072000AD1AA34102DB0020014670BD120530184E
:10073000514170BDC217C10F504010B54018CA07D3
:100740009623002100F077F810BD10B50022962303
:10075000114600F070F810BD410040020122400A2D
:10076000D205090E80187F2901DA002070479629EA
:1007700003DC9622511AC84070479639884070476A
:10078000C20FD207400040080BD0C10D0723DB0188
:10079000C91840020905400A1143C2084007114325
:1007A0007047002001467047CB0FDB07490010B5AA
:1007B000490802460A4307D00A0D07240903E40149
:1007C000090B121B002A01DC002010BDC900440FD8
:1007D0000C43C100E018D205801800F024F810BDC9
:1007E00010B5202A04DB0146203A9140002010BDBC
:1007F000914020239C1A0346E3401943904010BDCA
:1008000010B5202A06DBCB170846203A1041C11745
:100810000B4306E00B461341D0402024A21A91401E
:100820000843194610BD002904DA401C490001D1D3
:1008300040084000704770B40024050C05D1102416
:10084000000402D1002921D01124050E01D100029B
:100850000834050F01D10001241D850F01D180004E
:10086000A41C002801DB4000641C002908D02025BE
:100870002E1B0D46F540A14000D00121294308431D
:1008800001061B1B000ADB1D02D5002070BC70474F
:10089000DB05181880180029F8DA401C4900F5D14A
:1008A00070BC40084000704710B5002B08DA0024E7
:1008B000401C614192185B411A4301D1400840003D
:1008C00010BDF0B51FB482B005460C0003D0084639
:1008D00009F072FA02E009F06FFA20300246009047
:1008E00021462846FFF77CFF049B059A04460F46E5
:1008F00018431143084314D0184610431BD00098E6
:1009000040210A1A1846059900F040F805460E469F
:10091000009A05990498FFF763FF084305D001206A
:1009200004E02046394607B0F0BD0020C11705435A
:100930000E432C43374300990E986305401A7905FE
:10094000E40A00220C43FD0A0A3002D500200146C9
:10095000E9E70105101969410C9C0D9D00196941D9
:10096000FFF7A2FFDFE70000064C0125064E05E079
:10097000E36807CC2B430C3C98471034B442F7D3C0
:10098000FFF7F2FB240A0510C40A051010B5202A4F
:1009900004DB0846203AD040002110BD0B46D3406E
:1009A000D0402024A21A91400843194610BD70B5CA
:1009B0008C180578401C6B075B0F01D10378401C35
:1009C0002A1106D10278401C03E006780E70401C04
:1009D000491C5B1EF9D12B0705D40023521E0DD4F0
:1009E0000B70491CFAE70378401CCB1A921C03E0F9
:1009F0001D780D70491C5B1C521EF9D5A142D8D33D
:100A0000002070BD8121C90580220128088802D0FC
:100A10009043088070471043FBE78121C9050222FB
:100A20000128088806D0402318430880088890438E
:100A3000088070471043FBE78121C905012802D0D7
:100A4000088810220BE048684002088802D5FF227F
:100A5000013204E004221043088008880122104378
:100A60000880704710B5044600F0FEF8002801D059
:100A7000012010BD0121080208F036FC09490120BF
:100A800008704C700020887002200871C8700846F9
:100A900000F075F80120FFF7B5FF0120FFF7BDFF5B
:100AA000002010BD0C030020F8B581250E46ED0591
:100AB00069681F46490302D54724240600E0204CFC
:100AC000FFF738FE009068680006800F012803D009
:100AD00068680006800F05D16868400301D5194C8D
:100AE00000E0194C7F25ED053846FFF72EFE29461C
:100AF000FFF7A2FBFFF744FE05460F460098022EC3
:100B0000214611D0FFF72EFC1049FFF7EEFBFFF74F
:100B100037FE0F4A0F4BFFF70EFD2A463B46FFF705
:100B200013FDFFF741FEF8BDFFF71CFC0749FFF777
:100B3000DCFBFFF725FE064A064BFFF751FCECE70E
:100B400000720A4700031547002C21479A99194063
:100B5000333333333333E33F8121C905097C014209
:100B600001D001207047002070478120C0054168F6
:100B7000490301D4C08A7047808A70477047812139
:100B8000C9054A68C0239A4303789B071B0E1A4382
:100B90004A604378012292050F2B4B6823D0934380
:100BA0004B604A680E239A4343785B071B0F1A4336
:100BB0004A604A6830239A4303799B079B0E1A4385
:100BC0004A6082780123DB02082A4A680ED09A43E1
:100BD0004A604A680323C0781B0280079A43800D4D
:100BE00002434A60704713434B60E2E71A43EFE762
:100BF000F8B500240A2581270646FF050094786889
:100C00000007400FB0420BD10420FFF7A5FF0028DA
:100C100006D0641CE4B2AC4202D1FFF7A6FF0090FC
:100C200005484670304600F015F80120FFF704FF34
:100C3000AC42E4D30098F8BD0C03002010B50C467C
:100C40000349CB780A79014620B2FFF72DFF10BD8A
:100C50000C0300208122D20551680E2340079943DE
:100C6000000F014351607047F8B53F4908698D692D
:100C70000C6A411C03D1691C01D1611C72D00014A3
:100C8000FFF758FD394E3146FFF76CFB3849FFF747
:100C90002CFBFFF775FD374A374BFFF74CFC002262
:100CA000364BFFF751FCFFF77FFD07462814FFF78F
:100CB00041FD3146FFF756FB2D49FFF716FBFFF7C5
:100CC0005FFD2C4A2C4BFFF736FC00222B4BFFF725
:100CD0003BFCFFF769FD05462014FFF72BFD31466D
:100CE000FFF740FB2249FFF700FBFFF749FD214AD0
:100CF000214BFFF720FC0022204BFFF725FCFFF7DC
:100D000053FD3946FFF7E9FAFFF73AFD194A1C4B44
:100D10005242FFF781FC012300229B07FFF70BFCE7
:100D2000FFF742FD174E014630602846FFF7DDFA17
:100D3000FFF726FD04460D463846FFF721FD0D4A14
:100D4000114B5242FFF7F1FB22462B46FFF748FBBF
:100D50000022D243FFF7D8FCFFF726FD7060002089
:100D6000F8BDFFE70120FBE7C0070010002C21477A
:100D70009A991940333333333333E33F000008404B
:100D8000CCCC0C40D0020020CCCCFC3F10B5044CA5
:100D90002078002803D008F0B3F90020207010BD9F
:100DA000000300207FB505469868012202739A6807
:100DB0001C4651739868022202A90E3005F07FFE8E
:100DC000A16805200D74E0807FBD70B506460888D7
:100DD0001D460C46001D81B213460222304605F026
:100DE000D7FF21882B46891C2180091D89B2022248
:100DF000304605F0CDFF2088801C208070BDFEB5F8
:100E000000240E462746056845E028680290A96838
:100E1000022230460D3105F052FE3088B84209D02A
:100E200087B2384602F066FD014601AA384603F053
:100E3000F3FB019CA968022268460F3105F03FFED2
:100E4000E888401F81B22220005D002806D00128DA
:100E50000BD0002811D0012814D01BE0E08B6A468B
:100E60001288401E904206D307E0208C6A46128802
:100E7000401E904206D20720FEBD68460088081832
:100E8000E18B03E0684600880818218C884201D96C
:100E90000D20FEBD029D002DB7D100203080FEBD8B
:100EA000FFB5C8880025401E83B00E4687B20124D6
:100EB00027E0B0680222083001196846091D05F0D4
:100EC000FEFD6846008802F015FD01001DD0684651
:100ED0000A8D0088824212D001AA03F09DFB0028EF
:100EE0000DD101992620405C400708D506986A007C
:100EF000101802221C3105F0E2FD6D1CADB2A41CDD
:100F0000A4B2BC42D5D30C98058007B0F0BDFFB5A4
:100F1000074683B0002000900D9802F0EBFC069984
:100F200005460C310191002826D00837BD4223D058
:100F3000288D0E9988421FD80D99884213D30E9997
:100F4000884210D8294602222A31019805F0B7FDBF
:100F500010220C99069805F0AEFD002809D0298DC5
:100F60000E98814208D02E462C6A2036B4423FD1DA
:100F700040E005980021018007B0F0BDA18B0D98DD
:100F8000814234D30E98814234D8204620300290DA
:100F9000C078012808D02046083010220C9905F0AE
:100FA0008AFD002808D022E021460222083101985B
:100FB00005F085FD0698F0E702988079400716D580
:100FC0000098002801D1E08B0090E18B814211D183
:100FD00005980222008841000498081821461C3117
:100FE00005F06DFD059805990088401C088024686F
:100FF000B442C3D12D6899E70648002102684B200E
:10100000400110180170417003218170C1700020EF
:10101000704700005C03002070B50D4D04460123AD
:101020002868D902401890261A46C06C314609F04B
:101030007FF8010003D030464C6009F065F84B2082
:101040002968400109180878401C087070BD00002C
:101050005C03002010B5044600202082A074A16823
:10106000A16161612060204604F04AFD452801D05D
:10107000412010BDA08803210BF05CFA04460BF060
:101080000FFF002813D072B60A48012201684920D8
:1010900040010918487EA2401043487662B60020FD
:1010A0000DF0DAFE002802D000200AF07DF80020C2
:1010B00010BD00005C03002070B5C17C0E4D4906D8
:1010C000490EC174044601232868D90240189026AD
:1010D0000022C06C314609F02BF8010003D03046E5
:1010E0004C6009F011F84B20296840010918487834
:1010F000401C487070BD00005C0300201FB5082232
:1011000003900021074800920292019142880188D1
:1011100005480123008809F03BFB002800D0472048
:1011200004B010BDFC0200200203002010B588B0FE
:10113000184869460883022206A9174805F0BFFC33
:10114000164C0F23012214490220009409F0B9F92A
:1011500000281BD11248694688830F48022207A93C
:10116000103005F0ACFCA21C0021059201231020D8
:10117000029104930191084A0390009008231032D1
:101180000221208809F07EF9002800D0472008B00D
:1011900010BD00001615000084030020FC02002092
:1011A000012A0000F8B516460D460746002407F050
:1011B00045FC002806D032462946384600F02AFC75
:1011C000044604E020356879002802D00E24204629
:1011D000F8BD2879C10701D1012E09D0810701D4BA
:1011E000022E03D04007F2D4042EF0D10324EEE700
:1011F0000224ECE770477EB5044616460D46684665
:1012000003F0E4FA68460378237040782870684653
:10121000807830707EBD000070B500210C4A03E07C
:10122000535C491C5918C9B2535C002BF8D1CE1C31
:1012300002243525202E04D2545451184D70887044
:10124000CB7004490C704D708870CB7070BD00007D
:10125000640300201C00002010B508F013F91D4C99
:101260004121206849014118097F00290DD1A03092
:101270000079C00705D101F0ABFD02F095FB07F046
:10128000D1F900F017FC00F04BFE00F001F92068E6
:10129000014640310A78C9798A4319D13E21095C57
:1012A000002915D10C490A88120711D50922D20646
:1012B0001269497A836AC90059181123DB01C018E1
:1012C000806A801A00020012814201DA09F0C0FE31
:1012D00010BD00005C030020C000002010B5837F1B
:1012E0000122002492024168082B03D94224914232
:1012F00002D310E0914201D242240CE00146342294
:10130000064805F0DCFB00F083F8002801DA4824E9
:1013100001E008F0A7FC204610BD0000A403002057
:101320003EB5174D15482968827F0846A0310A73DB
:1013300000246030047644768476E122C2768022EE
:10134000027702224277302008704C7002AA01A96D
:101350006846FFF750FF68460078A2220101684600
:10136000007A891C000201436846007900030143AA
:1013700028681152A03004713EBD0000A403002073
:101380005C03002070B508F063F804F0DDFA05F0A6
:1013900071FCFFF731FE03F02BFD1A4C1A4920684F
:1013A0001A4D4018811013202A68C0011018C1621C
:1013B000616889080163A1688908416307F010F931
:1013C00029681F208001228B08188280628B0F23DE
:1013D000C280DB01A28BCB18DA87628C02802246A6
:1013E0002032127882703D22520100208918087341
:1013F00001F04EFB03F01EFB0AF014FA00F016FE9B
:1014000070BD0000A40300200000FCEF5C0300207E
:1014100070B50025ED430AF0DDFF01282ED0002332
:1014200018490322888BFF24401E10438A7F5934B9
:1014300062438218088B282460431218488B30249A
:10144000604312180846203040782C24604310185E
:101450000D4A181884184869A0420DD10B488442DF
:101460000AD90D690AF0B6FFC1B2284600F014FC93
:1014700000F04EFD401B251A284670BDFF23B533F2
:10148000CEE70000A403002089190000B80900007D
:10149000F8B52C4F3C68206E5C34401C002814D0FA
:1014A000002529480023C07B00283ED00926F606E7
:1014B0002648002D1CD000210A460B464169521CCB
:1014C000994204D1002902D004E00125E9E7204B2C
:1014D0009A42F2D32160006960603069A16800021D
:1014E000090E000A09060143A16000F033F81DE06F
:1014F0003169A2680902090A150E08D0018BC907D3
:1015000012D04169216000696060E37210E0881ABE
:1015100000027D2300121B03984205DD100E000619
:101520000843A06000F016F8F8BD6360002DFBD002
:1015300003CC0DF037FCFA200DF00CF83968886206
:10154000F8BD00005C030020C40300200000104828
:101550008813000004490020086104480121006844
:101560006030C17170470000000010485C0300202B
:1015700010B505F0B3FF10BD70B5274A0021106803
:1015800003464030417601764920400118184176E3
:1015900081760F202033987513230846DB011468E9
:1015A0000546E4186468303521541468E41864680A
:1015B000615514683035E418646861551468E4189E
:1015C000656804469034401CC0B229552D28E6D3E6
:1015D0001068C3185C6809231B02C318DC65254624
:1015E00030359D6590345C65FF234830037043704F
:1015F0008370C3701F23037112684D208154074804
:1016000001800921417105238371C17103724281F7
:1016100000F006F870BD00005C030020C000002050
:1016200010B5064801680648406A002803D0202209
:101630000AF06BFE10BD0020087010BD5C03002096
:10164000A4030020F8B5069C1F4615460646002C4C
:1016500013D0A06802220D3005F031FAE81E82B2E4
:101660003B460721204605F093FBE580A068012E4C
:1016700005D01D2101730020F8BD4720F8BD1B21B6
:10168000F8E770B515460646FFF78CFD0446082DB1
:101690000BD1052C09D1304607F0D0F9002804D031
:1016A00000894004800F00D00024204670BD242310
:1016B000184204D0C81F092803D82032D171002055
:1016C0007047422070470000F1B5FFB001248BB095
:1016D000600205900027CC4807970168CB48C94DA8
:1016E000081803908A980AAA0005000D05A906F0BB
:1016F000AFFE0690002872D104260AA80599421868
:10170000203AD27F0B2A23D00026002004900AA87A
:101710008119022201A8029105F0D1F96846818859
:1017200009AB08AA039802F059FF012817D0022834
:101730007ED068468088854200D30546844200D921
:101740002046044602988078012872D013363CE186
:10175000491E761E36040591360CCFD1D5E7089880
:101760000090002F66D1009902222831029805F0DE
:10177000A2F900281ED100982030017B02988078C1
:10178000814217D1012808D100980299022208301D
:10179000C91C05F090F9002815D00298807802281D
:1017A00008D10098029910220830C91C05F083F96D
:1017B000002808D00098008DA84200D80546A04215
:1017C00000D22046044602990AA88978012907D048
:1017D00013360599B6B28E4204D3012707E006E11D
:1017E000761DF6E78119022201A805F068F9039930
:1017F000009808318E462FE084466946026A8B883D
:1018000020300DE0918B994203D3012F7ED1994274
:101810007CD9A94200D80D46A14200D30C461268DB
:101820008242EFD10498002804D16046006802E0AB
:1018300015E0BFE08AE070450ED0018D994203D3D8
:10184000012F09D1994207D98D4200D30D468C4210
:1018500000D80C46012F59D17045CDD1BAE0089877
:101860000090002F72D1009902221C31029805F0DD
:1018700022F900281ED100982030C1780298807883
:10188000814217D1012808D100980299022208301C
:10189000C91C05F010F900281AD002988078022897
:1018A00008D10098029910220830C91C05F003F9EC
:1018B00000280DD00098808BA84200D80546A04291
:1018C00000D22046044602988078012826D003E002
:1018D00002988078012805D013360798B6B20128FF
:1018E0001ED021E000984A490089884216D18A9882
:1018F00000F05AFE0146009800F036FD0099098C70
:101900004843009989694018022200E038E00299B2
:10191000491D05F0D4F801200790D4E7761DDCE7D7
:10192000B61C0020B6B207900598864201D3012765
:1019300005E00AA88119022201A805F0C0F8039A5F
:101940000099083209980968944630E01AE0864602
:101950006A46938820300DE08A8B9A4203D3012F88
:101960000ED19A420CD9AA4200D81546A24200D301
:10197000144609688142EFD1049800282AD102E078
:101980000120049026E07046006860450FD0028D6B
:10199000016A9A4203D3012F09D19A4207D995428D
:1019A00000D31546944200D81446012FE8D1604573
:1019B000CDD10FE00298C078022805D102980079B5
:1019C000292801D1B61CB6B2761D0598B6B286425A
:1019D00000D301270598811B042902D3864200D237
:1019E00093E604980028FBD1A54203D906987FB05E
:1019F0000CB0F0BD224629468A9803F00FF90690F4
:101A0000F5E70000FFFF00005C0300206407000012
:101A10000229000070B515460C46064606F0F6FF92
:101A200020346179012D09D00A0702D54207920FAF
:101A30000FD0CA0625D5020709D522E0CA0702D071
:101A40004207920F05D08A0705D5020703D4082064
:101A500070BD052070BD490707D5C00709D0E179E1
:101A6000304606F047FF5F2805D02079C00704D034
:101A700005E00F2070BD0C2070BD022070BD00205D
:101A800070BD890607D5C007F3D0E179304606F06E
:101A900031FF5F28EFD02079810701D4022D07D0D4
:101AA000410701D4042D03D00007E8D4082DE6D166
:101AB000032070BD10B505F08FFA05F009F80AF0A3
:101AC00089FC012801D100F006F8C046C04600F0AC
:101AD000BFF810BD7047704700207047002101E03B
:101AE00000BF491C8142FBD370470000F3B58BB0A7
:101AF00005461C2248A103A8FEF754FB684602F0E5
:101B000065FE09240126E406002D67D044206946BD
:101B100088764848017A314301724C206946C8757D
:101B200020200875B22048775B2008A90870424A37
:101B3000906A4249030C8B420AD108AFFB788F2789
:101B40003B4008AFFB70FB784007400E0343FB703F
:101B5000506A020C8A420AD16B465A7CCF231A4043
:101B60006B465A745A7C8007800E02435A7432487E
:101B70004038006B020C8A4209D108AAD178890842
:101B80008900D170D1788007800F0143D1706946F8
:101B9000C87DFB2108406946C875487889780001EE
:101BA0000843122808D308A9C8780421084308A9C3
:101BB000C870C878FFF730FB03A8012180B2090480
:101BC0004018E060E068C003FCD469464878897832
:101BD00000010843122801D307F0DEFA1849088BE8
:101BE0000028FCD00E8317208881002008610C9803
:101BF000002806D0216910200140226902408A4253
:101C0000FBD0002D02D00F49152008700F490E4857
:101C100008600DB0F0BD0000023F00023E30023C03
:101C200020023B4C023A400239B202345B02350BCF
:101C30000000000000002040C007001055AA00006E
:101C4000000010480000C040CCBCECFC1400002098
:101C5000F8B5104E30682030C57D002D19D0002415
:101C600009273F0210E0E9070BD0C019816E602000
:101C7000604308184030417F204603F069FF002888
:101C800007D06D08641CE4B23068AC21095CA14245
:101C9000E9D8F8BD5C030020F3B581B0984A012172
:101CA00001A804F094FE974C04222060432101A86F
:101CB00004F08DFE01272168FF02C919086404227F
:101CC000432101A804F083FE21680422C919486455
:101CD000FF21843101A804F07AFE21688A4DC919D8
:101CE0008864A97F0C2201A80B3104F070FE132137
:101CF0002268C9015118C860A97F202201A804F0F8
:101D000066FE0926216836028919C867A97F102254
:101D100001A804F05CFE13212268C9015118086073
:101D20002822052101A804F052FE13212268C901CE
:101D3000511888603022052101A804F048FE1321C3
:101D40002268C90151184860FA10012101A804F065
:101D50003EFE13212268C90151184861A97F602203
:101D600001A804F034FE2168202289198866A97F21
:101D700001A804F02CFE21688919C866AA8B0121EC
:101D800001A804F024FE0F212268C90151188863BC
:101D9000298B282201A804F01AFE0F212268C9010C
:101DA00051180863698B302201A804F010FE0F213E
:101DB0002268C901511848630C22012101A804F0CE
:101DC00006FE21680C2289194866012101A804F049
:101DD000FEFD216828228919496E88602846203036
:101DE0000090417801A804F0F2FD216804228919CD
:101DF000496E896888600098417801A8491C04F000
:101E0000E6FD216810228919496E89684860A97F1A
:101E100001A804F0DCFD21680222C9194863A97FEA
:101E200001A804F0D4FD21680222C919C860A97F65
:101E300001A804F0CCFD21680222C9190861A97F1C
:101E400001A804F0C4FD21680222C9194861A97FD4
:101E500001A804F0BCFD21680122C9198861A97F8D
:101E600001A8491C04F0B3FD21681022C9190863B8
:101E70000B2101A804F0ABFD07222168120289188A
:101E800008650422802101A804F0A1FD21688919B8
:101E90000867029ADC204243012101A8443204F081
:101EA00096FD216889194867029AD820424301218A
:101EB00001A82C3204F08BFD2168F0228919886773
:101EC000012101A804F083FD104C7C222060A97F31
:101ED00001A804F07CFD21680822C867032101A83D
:101EE00004F075FD2168282280310860012101A8D5
:101EF00004F06DFD2168803148600198FEBD00004E
:101F0000B80900005C030020A40300206003002047
:101F1000704710B5C001000C00F0ECF9002010BDB6
:101F2000FEB572B63F4D0823286801464030C2799D
:101F30001A43C27162B6002001276C46FF0282007C
:101F40005218D219D26C52884300401CC0B2E252DF
:101F50000328F4D372B6C8190021866B816362B678
:101F6000F00702D000200AF077FDB00702D501206B
:101F70000AF072FD700702D502200AF06DFD3007ED
:101F800002D503200AF068FD002623E00D281AD2AE
:101F9000211D254A8000125820469047002812D063
:101FA00072B62868F7224030C1791140C17162B61B
:101FB00030E03A2807D21C49231D8000E8390A582E
:101FC000194620469047029829684018C019C06CED
:101FD0002188018071006846415AB00002902A6849
:101FE0008018C019C06C02889208920014180288E8
:101FF00008348A420ED0A27891070BD09107890F3E
:10200000012901D104460834A0788008C006E07890
:10201000CFD5BBE7761CF6B2032EDBD30AF064FC07
:10202000FEBD00005C030020B409051070B50AF085
:1020300075FC114D01242868E4020019006C402150
:102040000AF03AFA29680919C864486C40210AF074
:1020500033FA296809190865886CFF2181310AF073
:102060002BFA2B6808221919486504480021181812
:1020700004F029FD70BD00005C030020380800005A
:10208000FEB50646294814460068294A8518C888BE
:10209000032806D02346002202210420FEF782FEF8
:1020A00042E08968022268460D3104F008FD326979
:1020B00090052ED468460188172903D35C20405B25
:1020C000172801D2172002E0814200D20846708012
:1020D000012040020243022032610190134839215D
:1020E0000068490141183788097C7688012349072F
:1020F0000FD5D902083040182422C06C022108F004
:1021000017F8002805D08780C6800146019807F09F
:10211000FBFFA06803260673A068294602225C31F3
:102120000D3004F0CCFCE6800020FEBD5C030020F6
:1021300064070000F7B590B000206A460D909082C9
:102140006A4A6B4B12680446D218CB88022B08D01F
:10215000002218210420129BFEF724FE002013B059
:10216000F0BD8B6800205E7B0A900B90888830322F
:10217000019209900027019808F0E6FB054620E04F
:1021800028680890A9880998814219D1A968022273
:1021900007A80D3104F093FC002F01D16846878B0E
:1021A0006846808B87420BD12946019808F019FCBC
:1021B000002028600A98002811D00B9805600B9524
:1021C000089D002DDCD1002FD4D1129819218068F0
:1021D000017301211298012EC18002D081E00A957D
:1021E000EDE702A90AA8FEF70AFE002879D06946A1
:1021F0000A891821129BFEF7D5FD002671E081683F
:102200000546022202A80D3104F059FC012E66D1C8
:102210006846008901F06EFB014668460EAA0089F7
:1022200002F0FAF90E9C1099204600F09DF80D90EE
:1022300055E02F68012E3FD1002F06D0B968022249
:1022400005A80D3104F03BFC02E0002069468882BD
:10225000A968022204A80F3104F031FCE8880D9926
:10226000401F80B20090208CA26948436946101834
:10227000098A009A43180921284604F099FC222073
:10228000005D012804D16846018A00980818E0839F
:1022900068460189808A81420ED0208C0D99A269FE
:1022A000484310180021019000911098E38B018899
:1022B000A28B022008F02EF90A9908680A900020E3
:1022C00008600A99002900D10B900121284604F0EA
:1022D0000BFD69460889898A884202D13D46002D56
:1022E000A7D10A9800288AD139E700005C030020B2
:1022F0006407000000B508490968084A914209D1FD
:102300004006010C06483F220281816111210180B3
:1023100000F022F800BD000014000020CCBCECFC52
:102320000000104000B5094A1268094B9A420BD1CF
:10233000084A3F23138180089061064840300160BD
:102340003320108000F008F800BD000014000020C9
:10235000CCBCECFC000010400248018AC907FCD04C
:10236000704700000000104030B5024623239B5CFC
:102370000020012B1AD112890D4B9A4216D10D4A19
:10238000092312681B02D318A032DB6E127B0AE00D
:1023900045010C885D5B24052D05240D2D0DAC42F7
:1023A00004D0401CC0B28242F2D8002030BD0000F0
:1023B000022900005C030020F7B578480F4600684A
:1023C000774988B04418F888072804D200220621EB
:1023D00004200A9B2AE0B968022268460D3104F005
:1023E0006EFBB968022201A80F3104F068FBB968DE
:1023F000022204A8113104F062FBF888C01F80B2E9
:10240000039068460288808882420CD8002A0AD04D
:102410000898002142880A9804F0EAFD002808D0B4
:1024200045200BB0F0BD062101200A9BFEF7BAFC47
:10243000ABE00A98072180680834017301216846DF
:1024400001810594008801F055FA05007CD086E0F2
:102450006846008A0522D202904202D0521C904265
:1024600026D168460088814278D329460B2208315C
:102470003846039B04F032FC69466A8D098A8A4219
:102480006CD10399022901D0102967D1002865D1A8
:102490002A462846296A28322030814202D06B6AB7
:1024A0001C3300E0134602A90A98FEF78EFC55E0A3
:1024B0002E462C6A2036B4424ED14FE06946A08B9E
:1024C0000988884247D369468988884257D823209B
:1024D000005D01283FD120460899FFF745FF218C78
:1024E000A269414351180B223846039B04F0F6FBC6
:1024F000069008980122008821460005000DFEF78D
:1025000051FE01466A462089128A904223D1002951
:1025100021D1E28B03998A421DD1069900291AD153
:1025200008996A4649881289891A042927D32246BC
:102530001C491C32884208D12068B04205D000896D
:10254000884202D02468F7E719E023461C3302A929
:102550000A98FEF73AFC2468B442AFD12D6805987A
:1025600085420CD06846298D8088814207D808981A
:102570006A4640881289801A042800D368E76846B2
:102580000089012803D90A99C880002049E76846D4
:10259000028806210A200A9B48E700005C0300200D
:1025A000640700000328000010B50D4900050B6802
:1025B000092109025918CA6E0021000DA0331B7BA6
:1025C0000AE04C01145B2405240D844202D1480129
:1025D000801810BD491CC9B28B42F2D8002010BD32
:1025E0005C030020FFB589B0002405460794D0881D
:1025F0001646052804D00022042108460C9B20E042
:10260000B168022208A80D3104F059FAB16802221B
:1026100068460F3104F053FA6846028C0088824203
:102620000CD8002A0AD00A98002142880C9804F09D
:10263000DFFC002808D045200DB0F0BD04210120AA
:102640000C9BFEF7AFFBB9E06846008C01F052F935
:10265000060076D0083504950498864272D0694603
:10266000308D098C884230D36946098888422CD83D
:10267000002C0AD1012107910C98052180680224C1
:1026800001730C980799806841730A984088001B71
:10269000042857D30798012854D1201D81B233460E
:1026A000283302220C9804F073FBA01D81B233463C
:1026B0002A330222A41C0C9804F06AFB6946A41C6D
:1026C000308D0988A4B2884274D03746356A2037E5
:1026D000BD42C1D060E06946A88B098C88425AD3BC
:1026E00069460988884265D8002C36D02320415D90
:1026F0000798814260D10A984088001B042802D3C1
:102700000799012904D0122856D30798022853D1DB
:10271000201D81B22B461C3302220C9804F038FB9A
:10272000A41C0798A4B201280DD0201D81B22B460D
:10273000083310220C9804F02BFB2046103084B292
:1027400029E03DE036E0201D81B22B46083302220D
:102750000C9804F01DFBA01CF1E72320415D0791BC
:102760000C9805218068022201730C9807998068F3
:1027700041730C98294680681C310E3004F09FF993
:10278000079901290CD02B460833102208210C98F8
:1027900004F0FEFA14242D68BD429CD136685BE734
:1027A0000C982946806802220831103004F087F91D
:1027B0000624F0E7002C03D00C98C48000203BE7EF
:1027C0006846028C04210A200C9B3AE7064909223C
:1027D0000968120289188008C96E4001081801882A
:1027E000002900D1002070475C03002070B50C4622
:1027F0000B4E81000B4832680D1801232032D3772D
:1028000021462846FFF78EFD28680021844201D129
:10281000084600E0FB2032682032D17770BD00000E
:102820005C0300200000041038B5184A14682246E2
:10283000BA32AE34A378DD0701D001290AD05B0794
:102840000CD501290AD0217949070BD5E17A002955
:1028500005D007E0E07880210843E07038BD012111
:10286000E172508020794106090FF7D078210840A5
:1028700069460870002048706A460221422007F02D
:1028800057FD207987210840207138BD5C03002066
:1028900070470000FFB50C4678A103C995B00191BF
:1028A0000090002108A801730321C90268464186EF
:1028B000012108A8734E017435681746AE3502F041
:1028C00019F9002808D170493068401801F03AFF22
:1028D000A878002802D0462019B0F0BD0BA81599A1
:1028E00000F0B6FA0028F7D1072010A90871012CD2
:1028F00005D0022C0AD0002C0ED04220ECE708A80C
:10290000017B1020014308A8017305E011A90BA861
:1029100000F0ADFA0028DFD110A8027901230CA93C
:10292000284600F0ADFE00287ED1022229461898E4
:1029300004F0C5F829886846818115214902018281
:102940000784012686734E2108A881700024C47074
:10295000067107214171867103A902A800F046FCA7
:10296000002861D1022202A91E9804F0A8F8082FBD
:1029700002D26846478502E00820694648856946D4
:102980000C850B4628880AAA098901F02BFC00282F
:102990006DD13E49684601820227078408A88471E8
:1029A00003A902A800F022FC002860D1022202A99B
:1029B0001F9804F084F868460470694644704F8597
:1029C0000B4628880AAA098901F00CFC00284ED180
:1029D00008A8007BC00723D02C496846C91C018287
:1029E0000821018408A88770047103A902A800F0D7
:1029F000FDFB00283BD1FF216846C1718171C17088
:102A000081704170017044710471694608204885E5
:102A10000B4628880AAA098901F0E4FB002826D180
:102A200008A8007B800600E021E022D529886846BE
:102A300081811649A53101820684867308A88770B2
:102A4000C470047107214171847103A902A800F0C8
:102A5000CDFB00280BD169460E700C854E850B46C8
:102A600028880AAA098901F0BDFB002801D0472067
:102A700032E708A8007BA87000202DE7626C75651E
:102A80006E7267215C03002033070000012A0000FA
:102A9000034800210068AE30C170817070470000AB
:102AA0005C03002038B50246174801240068AE30A8
:102AB000022A1FD0052A03D0072A07D00B2A20D1CB
:102AC000084609794088FFF7AFFE1AE00079002434
:102AD000020600D50124820703D1C20601D4800674
:102AE0000FD5084600216A461170694607F02EF995
:102AF000044606E08178490703D50179FB2211409D
:102B00000171204638BD00005C03002010B5094863
:102B10000468AE34E07880070BD5002002F04CFD4D
:102B2000022007F0ABFBE07801210843FD210840BB
:102B3000E07010BD5C0300200FB410B5079C0128A5
:102B40002DD1684680891749884210D103A80FC843
:102B500000F0B2F900281DD105F096FBFA281ED02E
:102B600001281CD92078F3210840207017E00D4976
:102B7000491C884208D0C91E884205D0491C884299
:102B800002D0C91C88420AD103AC0FCC00F094F9E2
:102B9000002800D0632010BC08BC04B018470020F7
:102BA000F9E70000022A0000FFB5074673480D460A
:102BB00004688FB0AE34A1781E46C80602D5E0780E
:102BC000C0067DD4880607D5E0788006800F03D044
:102BD000022F01D0002E73D08806800F06D0022F5E
:102BE00008D0032F06D0002E6AD003E0012F01D0B9
:102BF000002FF8D1880603D4002D01D0012D5FD11C
:102C0000002E06D130200140384602F095FB002806
:102C100056D1119900200870A17889068A0F7DD0BD
:102C20000CA908A802F042FE07900DA90AA802F01C
:102C30006BFE06900798002802D00698002801D164
:102C4000012E58D1022F04A807D001F00DFD002E4F
:102C50003CD00798002803D012E006F0E8F8F6E729
:102C6000464F47483B68062208A9181803F023FF7F
:102C70000028386808D04030417E49084900417634
:102C80000698002805D014E04030417E012211430F
:102C9000F5E73A4F3A483B6806220AA9181803F0AC
:102CA0000AFF002838680CD04030417EFD221140D8
:102CB00041760798002809D00698002806D01AE027
:102CC00043E04030417E02221143F1E72B480622C7
:102CD00003682B4804A9181803F0F1FE0520694683
:102CE0000873002E02D1084606F0A6FC2548029083
:102CF000684606F055FCA078800611D5119803218E
:102D000001702079C10603D5002D01D0022D1CD100
:102D1000800605D5012D03D0032D00E018E014D165
:102D2000A078C00627D51199012008702079C10626
:102D300001D5002D09D1810601D5012D05D100064F
:102D400019D5002D17D0012D15D0422013B0F0BD9C
:102D5000012F01D1002E03D0890F314309D00AE0A1
:102D60000648062203680648611D181803F0A7FEEE
:102D70000120119908700020E8E700005C030020A2
:102D800033070000A0BB0D003EB509F0AFFB0446C1
:102D900009F038FC082C01D1082813D00A480B4947
:102DA000006806224118684603F089FE68464079AB
:102DB000400601D5022000E00320012302AA0021E1
:102DC000FFF7F2FE3EBD00005C0300203307000069
:102DD0001FB50E480468AE34E078010612D5A1781C
:102DE000C9070CD0800708D50420694608736846D7
:102DF00006F022FC022007F041FA0020E0704006B5
:102E0000400EE07000F032F81FBD00005C030020AF
:102E1000F0B58DB00C4616A9E0C9002108910991C2
:102E20000A910B911599049105A9E0C112A962C9F3
:102E30000093019113460146039602952246012014
:102E400007F08AF80DB0F0BD10B502F097FB10BD89
:102E50000A07920F01D0422070478A07FBD0027800
:102E60008907890F0A43027000207047704742208B
:102E70007047000010B50446022000F051F80D48DC
:102E800000210268092000021018A032C36E107BD6
:102E900005E04A019A5A002A04D0491CC9B2884266
:102EA000F7D810BD48011C52C018026904210A431A
:102EB000026110BD5C0300201FB582B0002401F048
:102EC00017FC694601F0B8FB009A6846116A008950
:102ED000203209E023235B5C012B04D10B89834260
:102EE00001D1641CE4B209689142F3D1204606B0D6
:102EF00010BD000010B504460146042002F0AEF8F3
:102F0000002808D0044805490068401821463C3094
:102F100007F04AFD432010BD5C0300206407000059
:102F200004490A683D21490151180A7B02430A738A
:102F3000704700005C03002000B51138C0B2FFF7F5
:102F400045FC002804D001220169520511430161AA
:102F500000BD7047F0B5027901239B070168002A84
:102F600002D0062A03D006E05C688C4302E05C686D
:102F700000220C435C6000210F240568CD40ED0762
:102F8000ED0F37D0082909D2DE6A8D002746AF4001
:102F9000BE431746AF403E43DE622BE00D46083D80
:102FA000082D0AD28D002646203D1F6BAE40B74348
:102FB0001646AE4037431F631CE00D46103D082DFA
:102FC0000AD28D002646403D5F6BAE40B7431646A1
:102FD000AE4037435F630DE017290BD9114E8D00CA
:102FE0002746603D368BAF40BE431746AF400D4D80
:102FF0003E432E83491CC9B21A29BED34179012907
:10300000D968026809D09143D9608179012999680A
:10301000006804D081439960F0BD1143F4E7014397
:10302000F9E70000200000401CB50121084606F029
:103030005BF9012000900620694608710020887124
:1030400048716846FFF786FF1CBD00000149086013
:10305000704700004000004001218907C8637047A5
:10306000012902D003490860704701218907C8631C
:10307000704700004000004003480068AE30807890
:103080008006800F704700005C030020F3B597B006
:103090000D8848880590081D1DC80DAE1DC68C8A78
:1030A000CE8A087E1390C86920310190087800907C
:1030B0004878049088780390C87802900F7900F0DF
:1030C000BFFD002817D10120400284425FD8B442DE
:1030D0005DD8002F01D1B44259D114A9284601F07E
:1030E000ABFA002806D115AA1499059801F094FAB4
:1030F000002802D0602019B0F0BD149D11A9284607
:10310000183003F0E9F810A88088002810D028466D
:1031100012A9203003F0E0F810A8838800892A8DD6
:103120001818696A10188A8B904203D16120E2E76F
:103130004820E0E715982C4B02899A4227D1232298
:10314000125C012A23D100680068169013980128A8
:103150001FD16846808E29221202801A030006F0D1
:103160004FFE0604180404070A18022C0FD110E0C1
:10317000072C0CD10DE0042C09D3E00707D1012F57
:1031800007D1A64203D3042E01D3F00701D0422079
:10319000B1E702980B90039B049A0A930992009856
:1031A000019A0C9708900696059407920DA81DC8E1
:1031B000019002A81CC013980B4600902A4616994D
:1031C000179800F0B1F9002895D168460649808E1D
:1031D000FF31884205D01798018800200A4601F087
:1031E0001DFD002087E7000003280000F3B5A5B00F
:1031F00008881A9088780C4611901022091D13A88F
:10320000FCF7D0FFA08A1090A17D68460172E07D96
:103210000F90207E2090677EA07E1F9000200646A3
:103220000146129020A801810F20BB4C2390BB497E
:1032300020684018199000F003FD00280BD10121EF
:103240001098490288425FD821A91A9801F0F4F930
:10325000002802D0602027B0F0BD2198179001F01F
:1032600047FA1A9988420CD102A80190169800904A
:1032700013AD0ECD1198FFF75FFC002801D063203D
:10328000E9E76846017A8806800F05D00120129090
:103290002068A030007B4600C80703D01298401C6D
:1032A000B61C1290080603D51298401CB61C12904A
:1032B00017980DA918301D9003F00EF86846129C5F
:1032C000808EA41CA04237D317980EA920300190FD
:1032D00003F002F86846018F00290DD01798179A5D
:1032E0006B46406A9B8E128D5918808B5118081AB4
:1032F000A04201D26120AEE7179884691198256831
:10330000012803D0022803D04220A4E7052000E0D2
:103310001320E0832A4639460F98FEF7C8F9422861
:1033200099D0199FE28B4037788B398B411A1098CE
:1033300010188019814201DA48208CE70EA9019803
:1033400002F0CAFF6846008F0028179802D0406A32
:10335000808B00E0008D2599401C08802598012174
:103360000088A083259802220088401CA8836C480E
:103370002081204620301790C1700021817081711A
:103380001998398B406D40186946A061097A01701F
:10339000A06929461C31401C03F091FB11980128BB
:1033A000A0697DD0102213A9C01C03F088FB284619
:1033B000102213A9083003F082FB388B13303883B6
:1033C0002E4620361198F0701098E8831F98B07040
:1033D00010982084109828841998398B406D4018D3
:1033E000A8610021109A03F06EFB398B1098081821
:1033F000388317990120087117990020487130719E
:103400006846007A810701D5012131710107022741
:10341000002902DA317939433171410703D5317915
:10342000042211433171400603D530790821084345
:1034300030710F9870712098B07121461D9802F07C
:1034400074FF2146019802F051FF29461D9802F0B1
:103450006CFF2946019802F049FF1298002841D0DC
:1034600068461A998181A18BC18107844784012410
:1034700008A8047122A80A9008A8847323994173AC
:103480000F993820014008A801730721C173002556
:1034900005746846007AC00708D02248694600E0F3
:1034A0002BE0088203A924A8FFF7F0FD6846007A04
:1034B0008006800F07D01B486946401E088203A97A
:1034C00024A8FFF7E3FD6846007A00060AD5292103
:1034D00009026846018208A84473057303A924A859
:1034E000FFF7D4FD259801881298401C081882B275
:1034F000002001F093FB0020ADE6022213A9C01CBE
:1035000003F0DDFA2846022213A9083003F0D7FAA7
:10351000388B401D53E700005C0300206407000067
:103520000328000003290000FFB55248524A0068F2
:1035300087B08218069210AA109B0126169F9288C7
:10354000012B04D14D4B9A4201D1A030067B069D40
:1035500034464035688B2B8B7C43C31A0998203046
:103560000390A34222DA48200BB0F0BD2320405C38
:10357000012819D108896C46208098420CD03F4C14
:10358000641EA04208D0641CA04205D0641CA04266
:1035900002D0A41CA04207D1384CFF3CA04201D06D
:1035A000904201D16220DFE7096801E029231B0274
:1035B00003988142DAD109981B99846918982246A8
:1035C000FEF775F84228CFD01C98012804D1159831
:1035D000874201D24220C7E71598E0832046203079
:1035E0001C990590817027840A98808B401CA083C9
:1035F0001098012814D02046102211A9083003F099
:103600005EFA05991098C8700698298B406D40188D
:10361000A061298B384670430818288300250FE0E5
:1036200011A80FC808340FC4183CEAE72846A1695E
:1036300078430818159A179903F041FA6D1CEDB2FA
:10364000B542F3D3059918984871059919980871EE
:1036500005991A98887109982146183002F065FE7C
:103660002146039802F042FE0798A18B01800020BA
:103670007AE700005C0300206407000002290000D4
:10368000FFB58FB014460E78102205A8891CFCF7F0
:1036900089FD4F484F490068451800F0D1FA0028CD
:1036A0001ED1002C57D0012E09D16846808A4A4984
:1036B000884204D12846A968083081424BD1284667
:1036C000103029690390814209D00AA9284602F0E6
:1036D00003FE6846018D601E0D90814202D2482093
:1036E00013B0F0BD284608300CA9049002F0F4FD98
:1036F0006846008E002814D0EF680AA938461830B2
:1037000002F0EAFD384620300CA902F0E5FD6846DB
:10371000398D008D09186846008E401C081887B244
:1037200000E0012701200004C01BA04201D261205B
:10373000D6E72C69286801901298012802D0022847
:1037400003D008E00520C00200E024486085012E77
:1037500003D0022E05D04220C2E7204608300222C4
:1037600002E020460830102205A903F0A8F92046FF
:1037700031462030064601730F9821460780278581
:10378000039802F0D2FD2146049802F0AFFD2746CF
:103790001837E7616662A76126620D9884B20BE074
:1037A0002846019902F0C1FD3846019902F09EFDBC
:1037B0002868641EA4B20190002CF1D10F980188F2
:1037C0000D98081882B2002001F028FA002087E73F
:1037D0005C030020640700000118000001280000BD
:1037E000F7B5064636480F460068364982B0441899
:1037F0003046FEF7D9FE050060D020462430009008
:1038000007F0E8F8002859D12869000356D5009838
:1038100007F09AF804464FE0A088B0424BD120222E
:103820003146002003F004FA060018D0A068002FEB
:10383000017B427B15D033460498FDF7B3FA002094
:1038400001222969D2049143296100282AD06928DC
:1038500002D03046FFF74EFB002005B0F0BD6420DB
:10386000FBE70A2906D00C290AD00E290ED0082918
:1038700012D023E032462146284604F01FFBDFE742
:1038800032462146284603F048FFD9E73246214612
:10389000284604F03FFAD3E732462146284604F092
:1038A000CFF8CDE72146009807F09BF8012120468C
:1038B00003F01AFACDE72468002CADD14120CCE703
:1038C0005C030020640700000246084808490068BD
:1038D00041188868083103E0038D934202D20068E2
:1038E0008842F9D1884200D1002070475C03002053
:1038F00064070000034610B50E480F4900684118E0
:103900008868083103E0148D9C4203D81046026891
:103910008A42F8D18A420CD1018D994209D20146DE
:10392000026A20318A4203D0416A898B994200D2CF
:10393000002010BD5C03002064070000024610B5A3
:103940000B4812050168092000020818C36E002008
:10395000120DA031097B07E044011C5B2405240DF6
:10396000944203D0401CC0B28142F5D810BD000083
:103970005C030020F7B505461746019806F0E4FF02
:103980002E050446360D0CE0A0882568B04207D10C
:103990002146019807F025F83946204603F0A4F99E
:1039A0002C46002CF0D1FEBDF0B58BB00020634951
:1039B000029063480A68141872B610464030C57900
:1039C00002231D43C57162B625464035287AC007DB
:1039D0007DD00920000210180026C76E49E0710151
:1039E0007A5A002A43D0C919069109694A021ED49D
:1039F0008A0226D502210491069901230988090526
:103A0000090D0391392149014118097C89070ED517
:103A1000D902083040182322C06C022106F088FB2E
:103A2000010004D0039A8A80049806F06DFB069882
:103A300000880090069800F085F8009804F0D8FF00
:103A400015E0480713D5069800880005000D04F01E
:103A500061FF002805D1069800880005000DFDF7DC
:103A600033FE069904200969814306980161761C9A
:103A7000F6B23248AC210068095CB142AFD803F01D
:103A800077FC20462430064606F0A4FF012802D029
:103A9000012003F071FB2046183006F09BFF01283F
:103AA00002D0002003F068FB3C34204606F092FF71
:103AB00001280FD002A9204606F0B5FF0420029984
:103AC00001F0CCFA0028F0D02046029900E032E064
:103AD00006F057FF287A00062DD5304606F07AFF0B
:103AE000012828D1002003F07FF8A98B2331490950
:103AF000491CC9B2FCF740FB00281CD00F4D0446FE
:103B000028680123D9020830401842263822C06CA8
:103B1000314606F00DFB01000DD000228A80CC80DA
:103B2000304606F0F1FA3D212A68490151180A7B16
:103B3000802082430A730BB0F0BD00005C030020BC
:103B400064070000F0B504463B483C49006885B076
:103B50004518218A890419D5022104913921490186
:103B60004118897C412627880123C9070ED0D90234
:103B7000083040183122C06C022106F0D9FA010049
:103B800004D08F808E71049806F0BEFA29462088F2
:103B900001221831FFF7EEFE29462088012230313C
:103BA000FFF7E8FE2946208801222431FFF7E2FED4
:103BB0002946208800223C31FFF7DCFE20880005E2
:103BC000000DFFF7BBFE85002946113168460173E1
:103BD00005F032FD294612316846017305F02CFDCF
:103BE000294613316846017305F026FD68461435F1
:103BF000057305F021FD208800F03CFA20880105BE
:103C00000D48090D02681320C0011018028A914264
:103C100001D100210182E069002802D0012103F0D6
:103C200063F8202200212046A56802F04CFF1720EF
:103C3000A560608005B0F0BD5C0300206407000053
:103C400010B50B480B49006844184034207AC0076F
:103C500009D0002002F0C8FF217A890701D5002889
:103C600003D0002010BD472010BD642010BD00000F
:103C70005C03002064070000F0B55FA099B0006805
:103C80005E4915905E4A086884180922120282185B
:103C9000D26E2546403514922A7AD20702D062208D
:103CA00019B0F0BDAA8B01235B029A4201D9AB8304
:103CB00003E0172A01D21722AA83149AA030139284
:103CC000067B0DE0761EF6B2139871010F18B868E6
:103CD0000F9038462022002102F0F5FE0F98B860C0
:103CE000002EEFD120460830E0606460A0602460C0
:103CF0000830139060612061FF220021083006F037
:103D000038FE2046FF220021243006F032FE2046F5
:103D1000AA7F0021303006F02CFE2046FF22002131
:103D20003C3006F026FE00222A7210461721334B43
:103D300005E0149E4701BE19401C7180C0B21E6888
:103D4000A036367B8642F4D8002028832F8C688CDE
:103D50000026149008E02820E16C704309182046E2
:103D600002F0C4FA761CB6B2BE42F4D3002608E0D4
:103D70003020216D70430918139802F0B7FA761CB1
:103D8000B6B214988642F3D30120FFF7C9F8012494
:103D9000684604701B4941802346042269460CA8EA
:103DA000FFF76EFC002822D16846018E81821649F9
:103DB0000183042606858475202108A881720024C9
:103DC000C472047307214173847305A90DA8FFF71A
:103DD0000DFA00280BD1684604874687818E15AB03
:103DE0000EAA008E00F0FEF9002800D158E700204E
:103DF0002872472054E700000000FFFF5C0300200A
:103E00006407000001180000052A0000F8B5044608
:103E100083480E460068834947184820C05DC007A4
:103E20006FD0B088FEF7C0FB0546012C02D0002CF5
:103E300068D0F3E0002D04D02869410703D5452060
:103E4000F8BD0121C7E0B268F188147B0029F0D0E9
:103E500062060AD568888842F3D3D22C01D0522C4E
:103E6000EFD138463146183048E0A106890E1E29A8
:103E700049D81E2C20D101071ED50821884328616E
:103E80002988012005F0C6F90121304602F02CFFF7
:103E9000634801230068D9020830401842242D8865
:103EA0003922C06C214606F043F9010003D08D8011
:103EB000204606F029F9B1E0E1070BD01D2C1AD0FD
:103EC0001B2C18D0410533D4012189020843EE612F
:103ED0002861A3E0C00606D52B460222032142201A
:103EE00006F0AAFCADE72988002005F079F92969D8
:103EF00010200143296138463146243006F054FD34
:103F00008CE015E016E029882022002002F090FEC7
:103F100005000DD00121304602F0E6FE2B460022BE
:103F200021460620FCF73EFF2846FEF7E3FF75E03A
:103F30004120F8BDB068047B1D2C3CD01B2C43D025
:103F40000021304602F0D0FE002D67D0032C46D071
:103F5000052C44D0072C42D0092C40D00B2C3ED04D
:103F60000D2C3CD00F2C3AD0112C38D0132C36D03D
:103F7000172C34D0192C32D0012C30D0022C35D053
:103F8000042C33D0062C31D0082C2FD00A2C2DD065
:103F90000C2C2BD00E2C29D0102C27D0122C25D055
:103FA000162C23D0182C21D0522C1FD0D22C1DD04F
:103FB0001E2C2FD032E0002D03D02988012005F0DF
:103FC0000FF93146022001E03146012005F014F8D6
:103FD000002823D00021304602F086FE1EE0296929
:103FE0001020814329612988002015E0286940219B
:103FF00088432861010511D5FF210131084328615B
:104000002988022005F0ECF801202969C0028143CB
:10401000296103E02988032005F0FCF80020F8BDA1
:104020005C0300206407000010B5104A104B1268B2
:10403000D2184032127AD20706D002280AD00528B8
:1040400004D00B2810D101E0412010BD4888FEF7B4
:1040500011FF09E04888FEF7A7FA002804D00122E2
:104060000169920511430161002010BD5C0300202D
:1040700064070000F1B5FFB085B047200190002033
:104080006946088053485449006847188498FEF7E9
:104090008BFA0290002874D0B96808374FE0684660
:1040A00000880D4604AC20186B46022228310CF023
:1040B0003EFA68460088294620186B4601222C31BA
:1040C0000CF035FA2E462036307B694601280988E7
:1040D00004A809D040186B461022294608310CF07C
:1040E00026FA01902C6A27E040186B460222F4E77A
:1040F0006946098804A8401821466B4602221C31F3
:104100000CF015FA6946098804A8401821466B4648
:10411000012223310CF00BFA2320005D69460128AF
:10412000098804A830D0401821466B461022083177
:104130000CF0FDF901902468B442D9D12968B94244
:10414000ADD1019800281CD16846008881070AD0AB
:10415000224A011D11406A4611800A1A04A9081852
:104160000B2102F0B0FC0298008804F0D3FB002879
:1041700007D1849869460005000D04AA098804F057
:104180009FF87FB006B0F0BD401821466B46022272
:1041900008310CF0CCF90190208911498842CAD12C
:1041A00020460299FEF7E0F84000A16903906A46B4
:1041B0000918128804A880186B4602220CF0B7F97F
:1041C0000190A169039802220818002102F07BFCEB
:1041D000B1E700005C03002064070000FCFF000062
:1041E00002290000F0B5074617480E4600683D2139
:1041F00049014018007B85B01D461446C00706D013
:1042000003A9384600F018FA00280AD102E0472036
:1042100005B0F0BD04AA3046039900F0FDF900286E
:1042200001D06020F4E70499228860880968002A98
:1042300000D0088C32466E4631C603233946002032
:1042400000F004F8E4E700005C030020FFB5002064
:1042500099B0239A0B90129005461490064615903B
:104260001C46DB480B460068DA49229F411803913F
:104270000021089109915188069111880A913D21E8
:1042800049014018007BC00706D00FA9184600F06E
:10429000D3F900280AD102E047201DB0F0BD10AAD2
:1042A0000F991B9800F0B8F9002801D06020F4E7BE
:1042B0001998002803D0600701D5012000E00020F4
:1042C0001390A007800F1C90109817902030C07892
:1042D000012840D11798C04B01899942F9D117980C
:1042E000069904680A98228C4118914233D82046D6
:1042F000203016908078012816D0E08B0490179813
:10430000806900788006800F7ED003984030189036
:10431000007A800778D51C980028F5D0AE4F0F9909
:10432000FF372031206814E0BA4214D3B942DDD8F7
:104330000497E4E70389A84A934203D12322125C3D
:10434000012A08D0BB4203D12322125C012A03D0E8
:1043500000688842EED134E105900028FBD09C48EB
:104360000921026809025118C96E0027009162E014
:10437000780100990390085A01055AD0199900292B
:1043800001D0884255D105997A008B69511C595C3E
:104390009A5C0902891889B20D91890749D00222D5
:1043A0000599FCF7FFFE002804D01998002840D09A
:1043B000652072E7002008A9C8551C98C00718D0CE
:1043C000179880690078C00613D50D98C00710D0E3
:1043D0000120C8550543009A039880184088159A13
:1043E000904206D91590009A0398105A0005000DC6
:1043F00014901C9880071CD5179880690078800657
:1044000017D50D98800700E083E012D50220CA5D21
:1044100005430243CA5500990398401840881599EE
:10442000884206D9159000990398085A0005000D96
:1044300014907F1CFFB266480068A030037BBB422B
:1044400096D8002D65D01898007A00065FD4604891
:104450000168092000020818C16E00201BE042011B
:104460008E5A360515D0AE070BD556183669B707E4
:104470000DD408AF3F5CBF0703D5360701D54620F2
:104480000BE7EE0705D05218127CD20701D043206B
:1044900003E7401CC0B28342E1D81598C01E86B223
:1044A0000498864200D90646A8070FD5202200208E
:1044B000149902F0BDFB129000287DD0F01C82B24E
:1044C0000021129802F08DFD002811D1E80720D0BC
:1044D00020220020149902F0ABFB0B90002807D09B
:1044E000F01C82B200210B9802F07BFD002810D056
:1044F0008020FEF715FD1298002802D0002102F05E
:10450000F3FB0B98002802D0002102F0EDFB6420A1
:10451000C3E6A1690A98069A0818249902F0CFFA0E
:1045200016988078012801D10498E083002D46D0A8
:10453000274B0920196800020818C16E002008AA3C
:104540000CE04301CF5A3F0506D05F18BC463B69DB
:10455000175C3B4367463B61401CC0B21C4B1B6869
:10456000A0331B7B8342ECD8A8070DD5129800908E
:10457000F01C82B221461C310220A369FDF762F8CB
:104580000220129904F038FDE80718D00B9800902B
:10459000F61C2146B2B21C310120A369FDF752F886
:1045A0001398002805D00B988021C07C08430B99F4
:1045B000C87401200B9900E005E004F01DFD002007
:1045C0006BE6422069E68020FEF7AAFC9FE7000028
:1045D0005C0300206407000003280000F0B5846835
:1045E000083015E0258D8D4203D11460186001203C
:1045F000F0BD26461C602036256A06E0AF8B8F4250
:1046000002D102201560F0BD2D68B542F6D12468B4
:104610008442E7D10020F0BD10B50B6A203106E0DE
:104620009C8B844202D10020136010BD1B688B421A
:10463000F6D1412010BD000010B5094A094B12689F
:10464000D2189368083206E01C8D844202D1002003
:104650000B6010BD1B689342F6D1412010BD0000D5
:104660005C03002064070000F8B5204E044635685E
:10467000AE3500F015FA2070000A607000F010FAF4
:10468000A070000AE07000F00BFAC2B28004830E42
:104690002271002163710846275C401C7918C0B262
:1046A00089B20628F8D30029E3D02078FF280CD15E
:1046B0006078FF2809D1A078FF2806D1E078FF288C
:1046C00003D1FF2A01D1FF2BD3D00622691D20463A
:1046D00002F0F1F90028CCD031680622204678316A
:1046E00002F0E9F90028C4D0F8BD00005C03002006
:1046F00002480068AE300088704700005C0300206C
:1047000010B50F4C002803D0012809D002280FD083
:1047100004F018FC0C21484300198038406F10BD8C
:1047200004F010FC0C21484300198038806F10BD44
:1047300004F008FC0C21484300198038C06F10BDFC
:104740007008051010B5034906220968B33102F05C
:10475000B6F910BD5C030020F7B5164600241CE036
:104760000098114900194018810801988900001922
:1047700042780578120215438278C0781204000648
:1047800002430948154340420F1829463846FDF7B1
:10479000C9FD3868854204D1241DB442E0D300200D
:1047A000FEBDFB20FEBD00000000FCEFF0B50E4694
:1047B0000746002407E03D1900F072F92870000A4E
:1047C0006870A41CE4B2B442F5D3F0BD30B5124A0F
:1047D000114C283A114BD1690906090F4170D26971
:1047E0001207120F827022680D4D01244260AA4206
:1047F00008D11A680B4B9A4201D1042200E0022230
:10480000027000E00470002900D144700649898AD2
:10481000491C8900816030BD280090401C000010B8
:1048200041A0000244A000F20000104010B5012891
:1048300018D8072916D80C4A12681346203318775F
:1048400059778007C906000E090E01430020074B67
:10485000A03204E08401E418A172401CC0B2147BB1
:104860008442F7D8002010BD5C0300200001002026
:10487000074A914202DC5242914200DA1146FF227D
:10488000993251430A1251180A14511808187047E6
:10489000FFFF4F0010B50920C00600690002000AA2
:1048A00004F0F6FE10BD70B50D460446FFF7F2FFAA
:1048B0002946FFF7DDFF0146204600F001F870BDF4
:1048C0001FB56A463A3010736846029104F07AFECA
:1048D000002800D0012004B010BD0000012801D143
:1048E000014948707047000000030020F0B54F4FA9
:1048F0000446386885B078300D461646002C10D036
:10490000062C14D0082C0FD0182C0DD0282C0ED02B
:104910002A2C0CD02C2C0DD02E2C0ED0D02C47D0E5
:1049200048E0062D0FD045E0102D0CD042E0022DBE
:1049300009D03FE0012D06D03CE0062D3AD1717937
:10494000890903296FD100192A46314602F0B7F8C8
:104950002C2C26D13078002823D007F03BFD0128ED
:1049600022D01B201F304009401C4100411801206B
:1049700002F028F907F02EFD012817D01B201F3068
:104980004009410041182A484078401AC01EC1B26F
:10499000002002F017F93868F92240300178114000
:1049A0000170002005B0F0BDFB20DBE7FB20E6E74F
:1049B000012D04D007F00EFD012804D005E0107889
:1049C00004F0D2F9EEE7D12C02D02F2C1ED02AE031
:1049D000082D28D102223146684602F070F80222E2
:1049E000B11C01A802F06BF80222311D02A802F0EE
:1049F00066F80222B11D03A802F061F868468389B7
:104A000002898188008809F0A2FDCBE7012D0AD137
:104A10003078002807D0082805D249223968520189
:104A200089188876BDE71220BCE700005C030020EF
:104A3000C403002070B5184C0721206809024118F2
:104A400000260E77154B4E770622FF21C01802F084
:104A50003AF8392520686D0140190671202141710D
:104A600007F0B8FC012814D01F2021680B4B49190E
:104A700088712068093307220021C01802F023F84A
:104A8000064B206810330522FF21C01802F01BF8E6
:104A900070BD5F20E9E700005C0300201E070000F6
:104AA00000210B200007026852070DD5026804237D
:104AB0009A430260026808231A43026004E0491C1A
:104AC000052901DD0020704742689207F7D541684B
:104AD000C907FCD0806880B2704710B5FFF7E0FFCF
:104AE0000446FFF7DDFF0004201810BDFEE7704705
:104AF00070470000F0B5454C13252668ED0170198C
:104B000080690027416B4248AE368DB0814242D069
:104B100006216846FFF74AFE69464879C0210843E6
:104B20006946487120680622401980692430FFF7E1
:104B300013FE0746102105A8FFF738FE2068102253
:104B40004019806905A9001DFFF706FE07431021E3
:104B500009A8FFF72BFE206810224019806909A9D7
:104B60001430FFF7F9FD0146394313D12068294974
:104B700040198069264F401880088100264808188F
:104B800039460490FDF7CEFB04980068B84201D185
:104B9000002700E0FB27226850198069A6322430E4
:104BA0000190062001460090002008F06AF90028D4
:104BB00002D12068A6300190701D009A019901F081
:104BC0007EFF2268102631460020803208F059F915
:104BD000002807D020683246411989698030091DB4
:104BE00001F06DFF226831460020903208F049F94B
:104BF000002807D020683246411989699030143165
:104C000001F05DFF38460DB0F0BD00005C030020F0
:104C1000AAAAAAAA3400FCEF0000041030B50F4B7A
:104C20000F4D1B6804465B1940331B7A412085B049
:104C30009B0710D56B469981DA81002018820420E9
:104C4000588203AA04A96D4607C502231A4601210A
:104C50002046FFF7FBFA05B030BD00005C030020E2
:104C600064070000024600200146535C002B00D080
:104C70000120491CC9B20629F7D3704702480068D1
:104C80002030C07F704700005C03002070B50E46E6
:104C9000054601462022002001F0CAFF040023D06F
:104CA000284600F06BF8050027D02879B04224D1BF
:104CB000A87880071FD4A06801210173A068002193
:104CC0004673A06802268673A068C173A068017449
:104CD000A06841740620E0802146052000F0BEF95E
:104CE000002803D0412509E064250BE0A878304373
:104CF000A870002506E0462500E042250021204658
:104D000001F0F2FF284670BD7CB514460D46002820
:104D10001ED1052D02D00B2D07D011E0627921792B
:104D20006088A31D03F068FF0AE021461231881F46
:104D300001910090627921796088A31D03F073FFCF
:104D400021462846FFF770F92146284600F0B4FABC
:104D50007CBD70B505460C46002000F00FF8002819
:104D60000BD02905090D018000218170002C01D193
:104D70000821817001210171C17070BD30B50246FA
:104D80000A4801230068DB020021C318A030047B1D
:104D900007E0586B0D0140190588954204D0491C65
:104DA000C9B28C42F5D8002030BD00005C03002061
:104DB00030B50A49012309680246DB020020CB18FE
:104DC000A031097B07E05C6B0501641924889442DB
:104DD00003D0401CC0B28142F5D830BD5C03002036
:104DE0008068017A407A0002081880B2704700009B
:104DF00070B50023134A1DE00125ED024019190189
:104E0000466B0024C81C345410684019466B081DBA
:104E1000345410684019406B445210684019466B76
:104E200008460830345210680C314019406B5B1C46
:104E30004450DBB21068AC21095C9942DCD80020F8
:104E400070BD00005C03002010B5024688680C4667
:104E5000817AC07A0002081881B2E088001FE080E1
:104E6000042909D005290CD006290FD0012120469C
:104E700001F03AFF002010BD21461046FEF7C6FFA4
:104E800008E02146104600F03FF903E021461046B5
:104E900003F0B4FC0028EED0E188091DE18010BDCC
:104EA000F3B581B00D4600268888FFF767FF07003D
:104EB00056D0287B3C46083400900228F86833D04E
:104EC000002845D0E888002810D02188401820808C
:104ED000284601F083FE01466068806801F046FBC9
:104EE0000120616801F03AFE0020E8802088042853
:104EF00028D36068FFF774FF001D218880B28142CB
:104F000026D881421BD16168C88061680198FFF78B
:104F10009BFF0146002000290ED06168A94201D103
:104F20006060208045261FE0002801D04526DDE78F
:104F30006560E8882080D9E7606020800BE0452E1E
:104F400006D008E0452E06D1384600F0C7F90BE040
:104F5000384600F0C3F9002E06D10098012803D18D
:104F60000121284601F0C0FE3046FEBD024610B5C4
:104F70000020002A05D0012A02D11046FFF790FF39
:104F800010BD1046FFF760FF10BD70B50546801ECE
:104F90000C46030004F034FF0A0C1D1D06170B0B12
:104FA0000B0B060B0A4620782946FFF7ADFE70BDB5
:104FB0002846FFF739F8608803F066FD2146284649
:104FC00000F07AF970BD4A890888A11C03F054FEEC
:104FD00070BD62880978284603F076FD70BD000038
:104FE000F0B585B0FFF7E4FE1B4D04462868A030FD
:104FF000007BA0422DD920463230694608736846AE
:1050000004F01AFB01262868F6028019426B002181
:1050100024011153286827468019426BE01C115463
:1050200028680C378019426B201D1154286880199C
:10503000406BC05900280CD0012101F055FE2968B1
:1050400000208919496BC85129688919496B0834AE
:10505000085305B0F0BD00005C03002010B50C46FD
:105060000146042805D0052903D0062901D0502087
:1050700010BDA068A2790272E088020AA06842729C
:10508000A0688172A068090AC172E088001DE080F2
:10509000022020732046FBF7DDFF0028E8D0E088DF
:1050A000001FE080412010BDF8B532380106022013
:1050B000144E009001253068ED020C0D4219392183
:1050C0004901526B4118C97B175B012349070CD575
:1050D000083040191E220221C06C05F029F8010099
:1050E00003D08F80009805F00FF83168002049192F
:1050F0004A6B211D505431684919496BE41C08550D
:10510000F8BD00005C030020F0B50D468DB0002115
:105110000A91A96800280F7B02D0012822D0C3E0A1
:10512000A888FFF745FE624E04463068A030007B39
:10513000A04215D9122F08D15E4802902046323085
:1051400069460873684604F02BFA01203168C002F2
:105150000818406B210140188178FD2211408170B0
:1051600000219EE0A888FFF723FE06465048AC22A7
:105170000168525CB24218D90120C0020818406B85
:1051800032018418A278100710D5122F10D15007C1
:1051900010D4A9882A46422005F088FBA078042173
:1051A0000843A070A868407B207179E0132F0AD0D3
:1051B000012F41D0A868417BA888FFF767FD0A90BE
:1051C00000286DD070E0A868E778437BBB4267D1C8
:1051D000520765D5027C407C01230002101887B27B
:1051E00042200490A8880690392040010818C07B0E
:1051F00080070FD5D802083108181D22C06C049909
:1052000004F096FF010005D0069A8A80CF800498AA
:1052100004F07AFFA078FB210840A070E078401CE1
:105220000006000EE07001D10120E07068463236C1
:10523000067304F001FA33E0100731D4A868E1786E
:10524000407B88422CD150072AD5FB200240A27017
:10525000E078401C0006000EE07001D10120E070F3
:1052600068463236067304F0E7F9114820220068D8
:105270009101083040184224AE880223C06C2146B8
:1052800004F056FF01000BD0A868437B877BC07BEE
:105290008E80000238188B710881204604F034FF9C
:1052A0000121284601F020FD0A980DB0F0BD000054
:1052B0005C0300203075000010B5022809D00528D5
:1052C00001D00B2808D1084609794088FFF741FD35
:1052D00002E04888FFF784FE002010BDF8B50546BF
:1052E000807810210843A870422000901148C9011D
:1052F000006801270830401802263B462122C06C76
:10530000009904F015FF04000AD027716671324637
:105310002946A01D01F0D3FB2146009804F0F4FEBD
:10532000E868002805D0012101F0DEFC0020E860DB
:105330002881F8BD5C030020FEB50F460646002418
:1053400007F060F9054607F0D1F8082D01D30828C9
:1053500011D202A9684600F091FA002F684606D0E3
:105360004079400601D5022102E0032100E0017AE4
:10537000B14200D041242046FEBD0000FFB50746E3
:105380008DB000200890079077481E460168774846
:1053900015460C182320400108184771C271002BD4
:1053A00001D0002101710E9800287DD0FFF75AFC32
:1053B000002879D0002E03D020342079012873D022
:1053C000FF24002E07D0022D02D0032D02D002E0D0
:1053D000002500E0012564486549006840180B90ED
:1053E000022F01D0032F6AD1684605700622401CA7
:1053F0000E9901F064FB6946002001F0D3FCFF2800
:1054000003D00B99C2005118CC7911239B01564946
:10541000002E14D00968CA189476232300225B0159
:10542000C9180A71FF284AD0372044434E48FF214B
:1054300000682F312018095C002904D015E00A68A3
:10544000D1188C75EEE70146FF31FF3047311F3030
:1054500001F0C4FD4448062200682118FF3105A868
:10546000483101F02CFB012007903F49FF220868DA
:105470004E322018125C002A1CD10146FF31FF3049
:105480004031303001F0AAFD37480622006821186B
:10549000FF3103A8413101F012FB01200890002EDA
:1054A00008D00121304800E018E0026823204001C4
:1054B000101801710798002801D0002E0AD032463A
:1054C00029460E9800F026FD0898002806D00121F4
:1054D00003A815E03246012105A8F3E7002F06D006
:1054E000012F1AD0022F02D0032F07D115E01E483A
:1054F000062201686846783101F0E1FA0021684629
:1055000000F072FD0124A402002F10D0012F16D04C
:10551000022F0CD0032F24D111E01348062201687A
:1055200014480918684601F0CAFA0121E7E70E4855
:105530000068816F041909027B30E1650CE00A48BC
:1055400005680C482818FAF76DFE00022C19401C5B
:10555000E0650848C01C2818FAF764FE0002000A3B
:105560002066002011B0F0BD5C0300205808000048
:105570006C040000330700000020704770B50D4632
:105580000B490024884204D8032106F0D3FF0828E1
:1055900001D302240AE00749012209682031C97DAC
:1055A0008240114202D1294600F0D2FA204670BD55
:1055B000FF0E00005C030020F0B5824D04468249D6
:1055C000286885B04018019006F090FF002C7DD02F
:1055D00008280DD34220074603907C4800240290FF
:1055E00006F0ECFF0090082004900098082802D3F1
:1055F0000C2005B0F0BD00F049FC00F039FB00982C
:1056000073498001421813212868C9014018818814
:1056100001988030036BC0315980016B09800021F3
:10562000C94301820021456ACB1DEF54856AEF54BE
:10563000C56AEF54056AEF54066B039DF554039B4E
:105640003F0A1B0A0393466A029D0B1DF554866AA6
:10565000F554C66AF554066AF554066BF554029B78
:10566000491C1B0AC9B202930329DCD300991123F8
:105670004907090E456A0B43AB72856AAB72C56A6E
:10568000AB72019B1D7E0223022D0BD1456AAE7ABF
:105690001E43AE72856AAE7A1E43AE72C56AAE7A9A
:1056A0001E43AE72466A0127F772866AF772C66AAF
:1056B000F7721943036B9972036A9972036B0321A2
:1056C000D972016ACF7200210B4600E04EE05354BC
:1056D00055186B71491CC9B20529F6D380259572FE
:1056E00001992031CE7BD672868C1682068E568228
:1056F000384E9661384ED6613E462027BE54D3754B
:10570000019A127E002A04D0012A04D0062A12D15E
:1057100010E018240FE003228368282452029342E9
:1057200009D1C368934206D100220492FF22563267
:10573000028200E01024497B002904D0012904D012
:10574000022906D103E0C02102E02C4301E0402100
:105750000C430499C2680902806853184218E10892
:10576000C900491C009809F0ADF842E772B6082854
:105770000CD209212A68090251188B6E602141431D
:10578000891C5C5C6407640F012C01D062B616E0D2
:10579000F024A45C002C04D01126FF24B601921939
:1057A000947500225A543F212A68490151180B7FF1
:1057B0000122824093430B7762B60BF013F800206E
:1057C00017E700005C030020580800008100B000CB
:1057D000CC000020D6BE898E55555500FFB50C462D
:1057E00091B00146102204A801F069F91022214667
:1057F00008A801F064F904A8009008A801900CA87A
:10580000029000266846067318481949006809275F
:105810004518FF062C46803472B66846007B002887
:1058200008D062B610220CA9139801F048F90020A4
:1058300015B0F0BD286D3969401A0E49000209887B
:10584000000A09070BD51499002908D10A49FF3825
:10585000884204D368460673606430BF03E068463C
:10586000666406F0B9FD62B6D6E700005C0300206E
:1058700058080000C000002002FF7F0070B50446F9
:1058800008480D460068084946182046316807F068
:10589000FDF972682271100A6071100C28700020E6
:1058A00070BD00005C0300205808000070B50D4674
:1058B000044606F01BFE082801D31F2070BD0948CE
:1058C0000949006840180022416B931CC95CA1542F
:1058D000521C062AF8DB406B00784006C00F287087
:1058E000002070BD5C0300205808000010B504467D
:1058F0000448807A8006400F06F010FD20700020DA
:1059000010BD000000010020F8B50C46054606F069
:1059100079FE082801D31F20F8BD0A4E13273068EE
:10592000FF01C019806806222946801C06F0EDFCA4
:105930003068C019806800784006C00F20700020D1
:10594000F8BD00005C030020F8B55E4B5E481E68A1
:105950000022301801462031027613240D460A73C6
:10596000E40131198E68FF27283686638968493734
:1059700050314163083181620721A973416B524E56
:105980000A70456B062169701B68FB2519198C6824
:105990007834C46389680824A03101640146C031A9
:1059A0004A720A72CC738C731B240C824F828D82D4
:1059B000103ECE820D834E838C83CF8343495A653C
:1059C000196513233F4C0146DB012668B518F6180C
:1059D000B768603516462D7E2A36BD552668F618FE
:1059E000B76816465236BD552668F618B76816468B
:1059F0007A36BD552668F618B7681646A236BD55E4
:105A00000D70521CD2B2491C062ADED300230B7043
:105A1000826B06215170426B517002468032536195
:105A2000194693611BE009252D025B1960254D4342
:105A30009F6E2B46264E0A33FE52092327681B020F
:105A4000FB189F6E2B4600262033FE500923276843
:105A50001B02FB1824359B6E491C5E51C9B223689A
:105A6000AC25ED5C8D42DED8002501219583C9026D
:105A7000018455640920216800020918896F936B1D
:105A8000891C598021680818806F516B801C4880E0
:105A90001048818D206840300186FBF76DFD3F2165
:105AA00020684901411841220D77520108218018D0
:105AB000817000F011F808F005FE20682030C574F0
:105AC000F8BD00005C03002058080000862E00008E
:105AD000FFFF0000A403002010B5084C2F2320680E
